:100000000C94EB000C9413010C9413010C94130149
:100010000C9413010C9413010C9413010C94130110
:100020000C9413010C9413010C945C080C94570568
:100030000C9413010C9413010C9413010C941301F0
:100040000C9413010C9413010C9413010C941301E0
:100050000C9413010C9413010C9413010C94C3071A
:100060000C9413010C9413010C9413010C941301C0
:100070000C9413010C9413010C9413010C941301B0
:100080000C9413010C9413010C9413010C941301A0
:100090000C9413010C9413010C9413010C94130190
:1000A0000C9413010C9413010C9413010C020F0215
:1000B000FE01020206023002300230021302170271
:1000C0001B022102250230022B0200000000230047
:1000D000260029002C002F00070605040100080A4D
:1000E0000B0C0D0900000000240027002A002D0041
:1000F000300000000000250028002B002E003100F9
:1001000004040404040304050202020204030202BC
:10011000020206060606060604040202020404049D
:1001200008020110408040102040804080080204F6
:10013000018040201002011080102040402000006B
:10014000000200090F0000030401000C0000000081
:1001500000000000000000000000000000080B008C
:10016000020202010009040000010202000005244D
:1001700000100105240101010424020605240600E3
:10018000010705810310004009040100020A000074
:10019000000705020240000007058302400000043A
:1001A00003090412010002EF0201404123368000DE
:1001B000010102030141726475696E6F204C4C436A
:1001C0000041726475696E6F204C656F6E61726478
:1001D0006F00FD0AEB0A11241FBECFEFDAE0DEBF8D
:1001E000CDBF22E0A2E6B1E001C01D92A63EB2075B
:1001F000E1F711E0A0E0B1E0EAECFDE102C005901A
:100200000D92A236B107D9F710E0CAEED0E004C0D3
:100210002197FE010E94A00DC93ED107C9F70E9497
:1002200050090C94D80E0C94000040918D0150910F
:100230008E0120918B0130918C0142175307B4F449
:100240009091E8009570E1F39091E80092FD19C05B
:100250008093F10080918D0190918E0101968F73B2
:100260009927892B19F48EEF8093E80080918D01F6
:1002700090918E01019690938E0180938D0181E083
:10028000089580E00895DF92EF92FF920F931F93FD
:10029000CF93DF93D82E8A017B01E40EF51EEB018C
:1002A000CE15DF0571F0D7FE03C0FE01849101C0B9
:1002B00088810E94150121968111F2CF8FEF9FEF67
:1002C00001C0C801DF91CF911F910F91FF90EF9076
:1002D000DF900895615030F02091F100FC012083FF
:1002E0000196F8CF289884E6809393010895CF92E1
:1002F000DF92EF92FF920F931F93CF93DF936C01E6
:100300007A018B01C0E0D0E0CE15DF0589F0D8017D
:100310006D918D01D601ED91FC910190F081E02D60
:10032000C6010995892B11F47E0102C02196ECCFFC
:10033000C701DF91CF911F910F91FF90EF90DF9058
:10034000CF900895CF93DF931F92CDB7DEB7698327
:10035000DC01ED91FC910280F381E02D41E050E061
:10036000BE016F5F7F4F09950F90DF91CF91089588
:1003700083E08093E9008091F200882319F08AE3FA
:100380008093E8000895FC018485958597FD0BC056
:100390009FB7F89482E08093E9008091F2009FBFBC
:1003A00090E0019608959FB7F89482E08093E90069
:1003B0008091F2009FBF90E00895089580E090E062
:1003C0000895362F90E0FC01E25CFE4F4491FC0161
:1003D000E15EFE4F2491FC01E050FF4F84918823A1
:1003E00009F451C04423E1F150E0FA013197EF30B4
:1003F000F105B0F5EA5AFF4F0C94A00D90918000E2
:100400009F7707C0909180009F7D03C090918000EE
:10041000977F9093800024C094B59F7702C094B5D5
:100420009F7D94BD1DC0909190009F7707C09091D3
:1004300090009F7D03C090919000977F90939000D3
:100440000FC09091C0009F7703C09091C0009F7D26
:100450009093C00005C09091C200977F9093C20016
:10046000E82FF0E0EE0FFF1FEE50FF4FA591B49183
:100470008FB7F894EC91311103C020952E2301C061
:100480002E2B2C938FBF08953FB7F894809167016E
:1004900090916801A0916901B0916A0126B5A89B6D
:1004A00005C02F3F19F00196A11DB11D3FBFBA2F06
:1004B000A92F982F8827820F911DA11DB11DBC0166
:1004C000CD0142E0660F771F881F991F4A95D1F72B
:1004D00008958F929F92AF92BF92CF92DF92EF9248
:1004E000FF926B017C010E9444024B015C01C1142C
:1004F000D104E104F104F1F00E944402DC01CB01DB
:1005000088199909AA09BB09883E9340A105B1053C
:1005100070F321E0C21AD108E108F10888EE880ED4
:1005200083E0981EA11CB11CC114D104E104F104A4
:1005300019F7DDCFFF90EF90DF90CF90BF90AF9095
:100540009F908F9008952FB7F894609163017091F8
:10055000640180916501909166012FBF08954F92CB
:100560005F926F927F92AF92BF92CF92DF92EF92A3
:10057000FF920F931F93CF93DF9385E7A82E81E01F
:10058000B82E00E010E08091890190918A0108174F
:1005900019070CF056C0D501CD91DD915D018D8913
:1005A000882369F08C819D81DC01ED91FC910190A3
:1005B000F081E02D09956E837F8388879987CE80AF
:1005C000DF80E884F9844A845B846C847D84A301A1
:1005D0009201C701B6010E949B0D18167CF48A890E
:1005E000882331F18C89882301F18A819B81DC0188
:1005F000ED91FC910190F081E02D16C0A3019201D4
:10060000C701B6010E94430C87FF0FC08A89811180
:100610000CC08C89882349F08A819B81DC01ED9193
:10062000FC910280F381E02D09950F5F1F4FABCF46
:10063000A3019201C701B6010E94430C87FDE9CFD7
:10064000F4CFDF91CF911F910F91FF90EF90DF904A
:10065000CF90BF90AF907F906F905F904F90089534
:10066000CF93DF93EC01EE81E23108F0E251F0E04C
:10067000E852FF4FE49180917B00E3FB222720F9B1
:1006800030E045E0220F331F4A95E1F78F7D282B9C
:1006900020937B00E770E064E0937C0080917A0017
:1006A000806480937A0080917A0086FDFCCF60910F
:1006B00078008091790070E0782B072E000C880B71
:1006C000990B0E944A0CEA81FB81E230F10538F077
:1006D000EE0FFF1FEE0FFF1F35973197F1F72C81BB
:1006E0003D812115310541F02130310561F42C8522
:1006F0003D854E855F8504C0288539854A855B85A3
:100700000E94FA0C04C060E070E080E89FEBDF918B
:10071000CF910895DC01ED91FC910280F381E02DF1
:100720000994FC01128260E083810C94E10121E0D4
:10073000FC01228361E083810C94E1010F931F93FC
:10074000CF93DF93EC01EE85FF85309709F0099593
:100750000E94A3026E837F83888799870A811B8109
:100760002C813D81DC01CB01800F911FA21FB31FA3
:100770008A879B87AC87BD87DF91CF911F910F91AF
:1007800008950F931F93FC010285138524853585F9
:10079000401B510B620B730B77FD02C0808901C0B7
:1007A00080E01F910F910895FC014283538364837D
:1007B000758386819781A085B185480F591F6A1F6F
:1007C0007B1F428753876487758708950F931F9314
:1007D000CF93DF931F92CDB7DEB782E0898342E4E7
:1007E00050E06DE571E080E80E9443010E944808F6
:1007F000DC0112960D911C9113970115110569F0FA
:10080000D801ED91FC910280F381E02DBE016F5F74
:100810007F4FC801099597FF07C089810F90DF912D
:10082000CF911F910F910895F80100851185E5CFB3
:100830008F929F92AF92BF92CF92DF92EF92FF92F0
:100840000F931F93CF93DF935C016B017A0180912B
:100850000D01882309F45BC080919401882309F479
:1008600056C08091910180FF05C08091E0008260B8
:100870008093E000E70110E00AEF83E0882E9AE31E
:10088000992E2097D9F10E94370881110AC0015092
:1008900009F43DC061E070E080E090E00E946902F0
:1008A000F0CF282F30E0C217D3070CF48C2F4FB7AE
:1008B000F8948092E9009091E80095FF1DC0282FE0
:1008C00030E0C21BD30BF601982F915020F081919C
:1008D0008093F100FACFC20ED31E112319F090922B
:1008E000E80009C08091E80085FD06C09092E8000C
:1008F00011E0209709F010E04FBFC3CF1111C3CF13
:100900005D9884E6809392011E141F0444F081E0F8
:1009100090E0F5019383828380E090E001C0C701FD
:10092000DF91CF911F910F91FF90EF90DF90CF90CB
:10093000BF90AF909F908F9008950E94370890E0ED
:1009400008950F931F93CF93DF931F92CDB7DEB718
:100950008C01FC018485958597FF0EC0CE01019620
:100960000E940D08019719F4298130E002C02FEF91
:100970003FEFF80135872487F801848595850F902E
:10098000DF91CF911F910F910895CF93DF931F9225
:10099000CDB7DEB7FC018485958597FD05C02FEFA7
:1009A0003FEF358724870BC0CE0101960E940D08CA
:1009B000019719F4898190E002C08FEF9FEF0F90AB
:1009C000DF91CF9108950E94D30E0F931F93CF9381
:1009D000DF93EC0161E088890E94E1016A817B81FB
:1009E0008C819D810E946C0D6230710548F0660F0C
:1009F000771F660F771F65507109CB010197F1F7DB
:100A000060E08A890E94E1012A893B893327F90144
:100A1000E15EFE4F6491F901E050FF4FE491F0E098
:100A2000EE0FFF1FE653FF4F8591949100E412E40F
:100A30002FE030E0462F0E94CE0861157105810538
:100A4000910549F0DC01CB010196A11DB11DBC014E
:100A5000CD019F7003C060E070E0CB010E94480CA4
:100A60002E853F852115310541F02130310561F496
:100A70002E813F814885598504C02A853B854C8558
:100A80005D850E94FA0C04C060E070E080E89FEB96
:100A9000DF91CF911F910F91089580916B019091FB
:100AA0006C010E943B0E85E791E00C943B0E1F9277
:100AB0000F920FB60F921124CF92DF92EF92FF9216
:100AC0000F931F932F933F934F935F936F937F9356
:100AD0008F939F93AF93BF93EF93FF93CF93DF9346
:100AE000CDB7DEB76C97DEBFCDBF1092E900809125
:100AF000E80083FFEDC168E0CE0145960E946A01DF
:100B000082EF8093E8008D8987FF05C09091E8000F
:100B100090FFFCCF03C09EEF9093E800982F907653
:100B200009F0C6C09E892F89188D91110CC080389C
:100B300029F4809190018093F10002C01092F1009D
:100B40001092F10048C1422F50E0512B913051F4E6
:100B5000811141C14130510509F03DC180919001A1
:100B60008D7F0BC0933061F4811135C14130510547
:100B700009F031C1809190018260809390012BC176
:100B8000953041F48091E80080FFFCCF20682093ED
:100B9000E30021C1963009F05FC0EB8CFC8C109211
:100BA000E90010928E0110928D01123091F5109291
:100BB0008C0110928B010E94E60399E0BE016F5FE9
:100BC0007F4FDB01E92F1D92EA95E9F799831A839C
:100BD00091E09E8390EA98879AEF998720918D0102
:100BE00030918E01275F3F4F3C832B838D83109282
:100BF000E90010928E0110928D01F0928C01E0922A
:100C00008B0149E050E080E00E9443010E94E6032E
:100C1000E2C0F0928C01E0928B010E944808DC0156
:100C20001296ED90FC901397E114F10409F4C0C002
:100C3000D701ED91FC910480F581E02DBE016B5E42
:100C40007F4FC7010995009719F00CF0C4C0C7C0C9
:100C5000F701E084F184E8CF973009F4C0C0983000
:100C600021F481E08093F100B6C0993009F0B3C05F
:100C7000837009F0B4C0EFE1F1E081E021E036E3F8
:100C80009081992361F08093E9002093EB0091918A
:100C90009093EC003093ED008F5F873089F78EE7FB
:100CA0008093EA001092EA008F898093940193C0A8
:100CB0008B8D9C8D1092E90010928E0110928D0107
:100CC00090938C0180938B01898D811156C08E8900
:100CD0009D89913A59F4813209F081C047E050E092
:100CE00066E071E080E00E94430175C0913209F036
:100CF00076C0833289F4888D90E0982F88272F89D9
:100D0000822BA0E0B0E08093020190930301A093B6
:100D10000401B09305015FC0803269F48091E8005E
:100D200082FFFCCF67E086E091E00E946A018BEFD2
:100D30008093E80006C0823209F04DC08F8980930D
:100D40000D0180918F01882319F0EEEFFAE002C0C7
:100D5000E0E0F8E08091060190910701A091080180
:100D6000B0910901803B9440A105B10509F07BC019
:100D700080910D0180FF93C076C00E944808DC017D
:100D800012960D911C9113970115110541F1D8018F
:100D9000ED91FC910190F081E02DBE016B5E7F4FE3
:100DA000C8010995811117C0F80100851185ECCFA4
:100DB000113009F44EC0133091F48F89882309F45F
:100DC00045C0823081F440E860E181EC91E00E940E
:100DD0001309882321F08EEF8093E80079C081E227
:100DE0008093EB0075C0813029F440E86BE085EB1F
:100DF00091E0EDCF833099F70E944808DC0112960C
:100E0000ED90FC9013978E010F5F1F4F6801E11466
:100E1000F10479F0D701ED91FC910680F781E02D86
:100E2000B801C7010995080F111DF701E084F1848D
:100E3000EECFD8011C92F60101900020E9F731971E
:100E4000BF016C197D0940E0C601C1CF6FE971E0B7
:100E500002C063EA71E06115710509F2FB0144917A
:100E600050E080E840CF0FB6F894A89580916000DC
:100E7000886180936000109260000FBEA895EE3FDD
:100E80002AE0F20739F08091FE0A9091FF0A9183DF
:100E90008083A1CF1092FF0A1092FE0A9CCFEE3FF2
:100EA0008AE0F80731F0808191819093FF0A809366
:100EB000FE0A87E797E7918380839BE088E10FB67E
:100EC000F894A895809360000FBE9093600083CF44
:100ED0006C960FB6F894DEBF0FBECDBFDF91CF91F9
:100EE000FF91EF91BF91AF919F918F917F916F9102
:100EF0005F914F913F912F911F910F91FF90EF9034
:100F0000DF90CF900F900FBE0F901F901895CF934A
:100F1000DF9390E0FC01E15EFE4F2491FC01E05084
:100F2000FF4F8491882361F190E0880F991FFC01A5
:100F3000EC51FF4FC591D491FC01EE50FF4FA591AC
:100F4000B491611109C09FB7F894888120958223DC
:100F50008883EC912E230BC0623061F49FB7F89424
:100F60003881822F809583238883EC912E2B2C93BC
:100F70009FBF06C08FB7F894E8812E2B28838FBFC0
:100F8000DF91CF9108951F920F920FB60F92112407
:100F90002F933F938F939F93AF93BF938091630160
:100FA00090916401A0916501B09166013091620158
:100FB00023E0230F2D3720F40196A11DB11D05C09C
:100FC00026E8230F0296A11DB11D20936201809394
:100FD000630190936401A0936501B09366018091D1
:100FE000670190916801A0916901B0916A01019631
:100FF000A11DB11D8093670190936801A0936901C1
:10100000B0936A01BF91AF919F918F913F912F91C2
:101010000F900FBE0F901F901895FC0180919401C6
:10102000811103C08FEF9FEF08959FB7F89482E07E
:101030008093E9002091F20030E01216130614F4B8
:1010400021E030E02115310559F0289884E680939D
:1010500093018091F10080838091F200882319F040
:101060009FBFC90108958BE68093E800F9CF2FB7A1
:10107000F89483E08093E9009091E800892F8072D2
:1010800095FF04C09091F20080E4891B2FBF089562
:101090008091DA0281110DC082E08093D60284E053
:1010A0008093D7021092D9021092D80281E08093E7
:1010B000DA0286ED92E008951F920F920FB60F921A
:1010C00011248F939F938091E1009091E100937F91
:1010D0009093E10083FF0FC01092E90091E090939C
:1010E000EB001092EC0092E39093ED0010929401CB
:1010F00098E09093F00082FF20C093E09093E90085
:101100009091F200992319F09AE39093E80090915E
:101110009201992339F0909192019150909392010C
:10112000992389F190919301992339F0909193013A
:10113000915090939301992341F184FF10C08091C5
:10114000E2008E7E81608093E2008091E1008F7EDC
:101150008093E100809191018E7E806111C080FFBB
:1011600016C08091E2008E7E80618093E2008091C3
:10117000E1008E7E8093E100809191018E7E8160FE
:101180008093910104C05D9ACDCF289AD6CF9F91CC
:101190008F910F900FBE0F901F901895CF92DF92F6
:1011A000EF92FF920F931F93E82FF92F05C0015084
:1011B00011092109310961F1908196239417B9F33E
:1011C00005C0015011092109310911F190819623BF
:1011D0009413F7CFC12CD12CE12CF12C0AC08FEF46
:1011E000C81AD80AE80AF80A0C151D052E053F058D
:1011F00079F080818623841791F36C2D7D2D8E2DBF
:101200009F2D1F910F91FF90EF90DF90CF90089549
:1012100060E070E080E090E01F910F91FF90EF9010
:10122000DF90CF900895CF92DF92EF92FF920F93CD
:101230001F93CF93DF931F92CDB7DEB7182F062FE2
:10124000E42E862F880F8E5F99830E94150183E01C
:101250000E941501F12EC12E9981D92E8C2D8F1946
:10126000801798F4F601E7FE02C0849101C08081E6
:101270000E941501182F80E00E9415018123FFEFC5
:10128000CF1ADF0A8111EACF01C081E00F90DF9110
:10129000CF911F910F91FF90EF90DF90CF90089525
:1012A000789484B5826084BD84B5816084BD85B541
:1012B000826085BD85B5816085BD80916E0081604D
:1012C00080936E00109281008091810082608093F3
:1012D00081008091810081608093810080918000F5
:1012E0008160809380008091910082608093910062
:1012F0008091910081608093910080919000816045
:10130000809390008091C10084608093C10080919F
:10131000C10082608093C1008091C1008160809390
:10132000C1008091C30081608093C3008091C000A0
:1013300082608093C0008091C20081608093C2006F
:1013400080917A00846080937A0080917A00826034
:1013500080937A0080917A00816080937A008091F6
:101360007A00806880937A00109294011092900124
:10137000109291018091D70081608093D70080EA1C
:101380008093D80089B5806189BD89B5826089BDA7
:1013900009B400FEFDCF61E070E080E090E00E94C3
:1013A00069028091D8008F7C80618093D800809101
:1013B000E000807F8093E0008091E1008E7E80934A
:1013C000E1008DE08093E200559A209AEEEFFFE76E
:1013D000859194918B3F9C4D19F481E080938F010E
:1013E0001092290210922A0210922B0210922C02C3
:1013F0001092E7011092E8011092E9011092EA01BF
:101400000E94A3026B017C014B015C0188EB880EFA
:101410008BE0981EA11CB11C0E94A3026C157D05D7
:101420008E059F0528F086169706A806B906A0F730
:1014300085E991E09093280280932702CBE1D0E0E8
:1014400010910D016AE070E080E090E00E94690276
:10145000111109C0219739F064E670E080E090E056
:101460000E946902EDCFE0912702F09128028FEFF0
:101470009FEF958784870E94A3026093E701709392
:10148000E8018093E9019093EA018091270290910D
:101490002802DC01ED91FC910280F381E02D41E115
:1014A00050E06FE471E009950E94A3026B017C019A
:1014B0004B015C01BAE08B0E911CA11CB11C0E9477
:1014C000A3026C157D058E059F0528F086169706EC
:1014D000A806B906A0F711E01093FB0110929E0236
:1014E000109288021092720280916D01811146C0A3
:1014F00083E190E00E94A60DEC0188E191E09983E0
:101500008883188B1F861E861A861B861C861D865E
:101510000E94A3026E837F8388879987DA8BC98BA9
:101520001A821B821C821D826A877B878C879D871B
:10153000D0936C01C0936B0184E690E0909301011D
:10154000809300018FEA92E09F878E87E881F9817E
:101550000190F081E02D44E650E060E070E0CE01C3
:10156000099580916B0190916C01DC01ED91FC91EA
:101570000480F581E02D099510936D01809189011A
:1015800090918A01FC01EE0FFF1FEB58FE4F2CE8F3
:1015900032E0318320830196FC01EE0FFF1FEB58F0
:1015A000FE4F26E732E0318320830196FC01EE0FE7
:1015B000FF1FEB58FE4F20E632E031832083019677
:1015C00090938A0180938901C0E0D0E02097F1F3E5
:1015D0000E940000FBCF80916202909163020E9402
:1015E0003B0E80917802909179020E943B0E80918F
:1015F0008E0290918F020C943B0E8F929F92AF922D
:10160000BF92EF92FF920F931F93CF93DF93E5E981
:10161000F1E01382128288EE93E0A0E0B0E08483D0
:101620009583A683B78389E291E0918380838FEFCE
:101630009FEF95878487E5EEF1E01682178210868A
:101640001186128613861486158616861786108ACA
:10165000118A128A138A148A158A86ECE82E82E08F
:10166000F82EEBE4F1E0D7011196FC93EE932CE316
:1016700030E013963C932E93129781E090E01596FC
:101680009C938E931497812C912CA12C40E4B42E22
:1016900018968D929D92AD92BC921B9746E253E9AB
:1016A00069E47FE31C964D935D936D937C931F9744
:1016B00017969C938E93169706EB12E0D80111961D
:1016C000FC93EE9313963C932E93129715969C934E
:1016D0008E931497F80180869186A286B3861C9615
:1016E0004D935D936D937C931F9717961C921E925A
:1016F0001697C2EAD2E083E491E09983888380E080
:1017000090E0A0E2B1E48A839B83AC83BD8380E058
:1017100090E0A4E1B3E48E839F83A887B98780E03B
:1017200090E0A8E6B2E48A879B87AC87BD871F86D6
:101730001E868EE090E0998B888B8FE090E09B8BEB
:101740008A8B61E08EE00E94870760E08A890E94B0
:101750008707ECE8F2E086869786A08AB18A81E066
:10176000828B138A148A40E050E06CE872E442876E
:10177000538764877587F582E482858B1182108296
:10178000E6E7F2E086869786A08AB18A828B138A82
:10179000148A428753876487758715830483858BF2
:1017A00011821082E0E6F2E086869786A08AB18AEE
:1017B000828B138A148A4287538764877587D583FF
:1017C000C483858B118210820BE512E0CBE3D1E05C
:1017D000F801D183C08361E085E00E94870785E03E
:1017E00090E0D80114969C938E93139706E512E02F
:1017F000F801D183C08361E087E00E94870787E01A
:1018000090E0D80114969C938E93139701E512E013
:10181000F801D183C08361E086E00E94870786E0FB
:1018200090E0D80114969C938E931397E5E4F2E030
:10183000148215821682178280E090E0A0E8BFE350
:1018400080879187A287B387E9E3F2E0148215824B
:101850001682178280879187A287B387EDE2F2E034
:10186000148215821682178280879187A287B38798
:10187000DF91CF911F910F91FF90EF90BF90AF90AC
:101880009F908F9008950E94850C08F481E0089540
:10189000E89409C097FB3EF490958095709561950A
:1018A0007F4F8F4F9F4F9923A9F0F92F96E9BB27C0
:1018B0009395F695879577956795B795F111F8CF3C
:1018C000FAF4BB0F11F460FF1BC06F5F7F4F8F4FA7
:1018D0009F4F16C0882311F096E911C0772321F09D
:1018E0009EE8872F762F05C0662371F096E8862F35
:1018F00070E060E02AF09A95660F771F881FDAF78C
:10190000880F9695879597F90895990F0008550FB8
:10191000AA0BE0E8FEEF16161706E807F907C0F075
:1019200012161306E407F50798F0621B730B840B7D
:10193000950B39F40A2661F0232B242B252B21F457
:1019400008950A2609F4A140A6958FEF811D811DF7
:10195000089597F99F6780E870E060E008959FEF31
:1019600080EC089500240A94161617061806090636
:10197000089500240A941216130614060506089505
:10198000092E0394000C11F4882352F0BB0F40F48D
:10199000BF2B11F460FF04C06F5F7F4F8F4F9F4FCD
:1019A000089557FD9058440F551F59F05F3F71F04F
:1019B0004795880F97FB991F61F09F3F79F08795B6
:1019C0000895121613061406551FF2CF4695F1DF3F
:1019D00008C0161617061806991FF1CF86957105CF
:1019E000610508940895E894BB2766277727CB0103
:1019F00097F908950E940E0D0C94C00C0E94B90C2A
:101A000058F00E94B20C40F029F45F3F29F00C948A
:101A1000A90C51110C94F40C0C94AF0C0E94D10C35
:101A200068F39923B1F3552391F3951B550BBB270D
:101A3000AA2762177307840738F09F5F5F4F220F52
:101A4000331F441FAA1FA9F335D00E2E3AF0E0E849
:101A500032D091505040E695001CCAF72BD0FE2F93
:101A600029D0660F771F881FBB1F26173707480727
:101A7000AB07B0E809F0BB0B802DBF01FF279358DF
:101A80005F4F3AF09E3F510578F00C94A90C0C94EE
:101A9000F40C5F3FE4F3983ED4F386957795679511
:101AA000B795F7959F5FC9F7880F911D9695879514
:101AB00097F90895E1E0660F771F881FBB1F621733
:101AC00073078407BA0720F0621B730B840BBA0BF1
:101AD000EE1F88F7E09508950E94D90C88F09F5773
:101AE00098F0B92F9927B751B0F0E1F0660F771F42
:101AF000881F991F1AF0BA95C9F714C0B13091F038
:101B00000E94F30CB1E008950C94F30C672F782F2A
:101B10008827B85F39F0B93FCCF3869577956795FC
:101B2000B395D9F73EF490958095709561957F4F68
:101B30008F4F9F4F08950E94850C08F48FEF0895F2
:101B4000EE0FFF1F0590F491E02D0994CF93DF93E2
:101B50008230910510F482E090E0E091E402F0918F
:101B6000E50220E030E0C0E0D0E0309711F14081A4
:101B7000518148175907C0F04817590761F482810D
:101B80009381209719F09B838A832BC09093E50261
:101B90008093E40226C02115310519F0421753073E
:101BA00018F49A01BE01DF01EF010280F381E02DFC
:101BB000DCCF2115310509F1281B390B2430310503
:101BC00090F412968D919C9113976115710521F0F7
:101BD000FB019383828304C09093E5028093E40227
:101BE000FD01329644C0FD01E20FF31F81939193F2
:101BF000225031092D933C933AC02091E20230915A
:101C0000E302232B41F42091100130911101309314
:101C1000E3022093E20220910E0130910F01211581
:101C2000310541F42DB73EB7409112015091130197
:101C3000241B350BE091E202F091E302E217F30777
:101C4000A0F42E1B3F0B2817390778F0AC014E5F2C
:101C50005F4F2417350748F04E0F5F1F5093E30284
:101C60004093E2028193919302C0E0E0F0E0CF0163
:101C7000DF91CF9108950F931F93CF93DF93009738
:101C800009F48CC0FC013297138212820091E402A5
:101C90001091E5020115110581F420813181820F37
:101CA000931F2091E2023091E3022817390779F55A
:101CB000F093E302E093E20271C0D80140E050E00B
:101CC000AE17BF0750F412962D913C911397AD01BA
:101CD0002115310509F1D901F3CF9D01DA013383D3
:101CE000228360817181860F971F8217930769F4A1
:101CF000EC0128813981260F371F2E5F3F4F31833A
:101D000020838A819B8193838283452B29F4F093DE
:101D1000E502E093E40242C01396FC93EE9312971F
:101D2000ED01499159919E01240F351FE217F307E8
:101D300071F480819181840F951F029611969C9376
:101D40008E938281938113969C938E931297E0E0F9
:101D5000F0E0D80112968D919C911397009719F09D
:101D6000F8018C01F6CF8D919C9198012E5F3F4F29
:101D7000820F931F2091E2023091E3022817390766
:101D800069F4309729F41092E5021092E40202C03F
:101D9000138212821093E3020093E202DF91CF914B
:101DA0001F910F91089581E090E0F8940C94D80E63
:101DB00010E0CAEED0E004C0FE010E94A00D219602
:0A1DC000CB3ED107C9F7F894FFCF1E
:101DCA006400FFFFFFFF00E10000000000000000C8
:101DDA00E602800000000000D403C1039E0300C194
:101DEA00808100000000000000A20118049D04B8D0
:101DFA0001C301C504A10400000000970391030078
:101E0A000000008A03E504000000008A033003563C
:101E1A004D4450565F317C315F564D4450560D0A41
:021E2A000000B6
:00000001FF
