:100000000C94E4000C940C010C940C010C940C0165
:100010000C940C010C940C010C940C010C940C012C
:100020000C940C010C940C010C9420070C942A04E1
:100030000C940C010C940C010C940C010C940C010C
:100040000C940C010C940C010C940C010C940C01FC
:100050000C940C010C940C010C940C010C9466068D
:100060000C940C010C940C010C940C010C940C01DC
:100070000C940C010C940C010C940C010C940C01CC
:100080000C940C010C940C010C940C010C940C01BC
:100090000C940C010C940C010C940C010C940C01AC
:1000A0000C940C010C940C010C940C010502080238
:1000B000F701FB01FF012902290229020C021002AB
:1000C00014021A021E022902240207060504010076
:1000D000080A0B0C0D090000000200090F000003C4
:1000E0000401000C000000000000000000000000FF
:1000F0000000000000080B000202020100090400D9
:100100000001020200000524001001052401010184
:10011000042402060524060001070581031000409F
:1001200009040100020A0000000705020240000065
:10013000070583024000000403090412010002EFD6
:100140000201404123368000010102030141726433
:1001500075696E6F204C4C430041726475696E6F17
:10016000204C656F6E6172646F0000000000250016
:1001700028002B002E003100000000002400270082
:100180002A002D00300004040404040304050202C4
:100190000202040302020202060606060606040420
:1001A00002020204040408020110408040102040B2
:1001B000804080080204018040201002011080105D
:1001C00020404020320A310A11241FBECFEFDAE06E
:1001D000DEBFCDBF23E0A0E8B1E001C01D92AD328B
:1001E000B207E1F711E0A0E0B1E0EEEBFFE102C001
:1001F00005900D92A038B107D9F710E0C3EED0E01A
:1002000004C02197FE010E949A0EC23ED107C9F791
:100210000E94CF070C94D20F0C9400004091A101D2
:100220005091A20120919F013091A00142175307E4
:10023000B4F49091E8009570E1F39091E80092FD9C
:1002400019C08093F1008091A1019091A2010196C3
:100250008F739927892B19F48EEF8093E800809192
:10026000A1019091A20101969093A2018093A10116
:1002700081E0089580E00895DF92EF92FF920F935E
:100280001F93CF93DF93D82E8A017B01E40EF51ED6
:10029000EB01CE15DF0571F0D7FE03C0FE0184919E
:1002A00001C088810E940E0121968111F2CF8FEF4B
:1002B0009FEF01C0C801DF91CF911F910F91FF9077
:1002C000EF90DF900895615030F02091F100FC0133
:1002D00020830196F8CF289884E68093A70108959B
:1002E000CF92DF92EF92FF920F931F93CF93DF9302
:1002F0006C017A018B01C0E0D0E0CE15DF0589F0FA
:10030000D8016D918D01D601ED91FC910190F081A4
:10031000E02DC6010995892B11F47E0102C02196BA
:10032000ECCFC701DF91CF911F910F91FF90EF901C
:10033000DF90CF900895CF93DF931F92CDB7DEB7B4
:100340006983DC01ED91FC910280F381E02D41E0B5
:1003500050E0BE016F5F7F4F09950F90DF91CF9105
:10036000089583E08093E9008091F200882319F0DA
:100370008AE38093E8000895FC018485958597FDC4
:100380000BC09FB7F89482E08093E9008091F2005F
:100390009FBF90E0019608959FB7F89482E0809304
:1003A000E9008091F2009FBF90E00895089580E0F9
:1003B00090E00895362F90E0FC01EA52FF4F4491FF
:1003C000FC01EB55FE4F2491FC01EA57FE4F84914E
:1003D000882309F451C04423E1F150E0FA01319738
:1003E000EF30F105B0F5EA5AFF4F0C949A0E909158
:1003F00080009F7707C0909180009F7D03C09091FF
:100400008000977F9093800024C094B59F7702C0AE
:1004100094B59F7D94BD1DC0909190009F7707C0BB
:10042000909190009F7D03C090919000977F909352
:1004300090000FC09091C0009F7703C09091C000C2
:100440009F7D9093C00005C09091C200977F9093CC
:10045000C200E82FF0E0EE0FFF1FE659FE4FA59116
:10046000B4918FB7F894EC91311103C020952E23ED
:1004700001C02E2B2C938FBF08953FB7F894809125
:10048000850190918601A0918701B091880126B5E0
:10049000A89B05C02F3F19F00196A11DB11D3FBFBC
:1004A000BA2FA92F982F8827820F911DA11DB11D4A
:1004B000BC01CD0142E0660F771F881F991F4A9546
:1004C000D1F708958F929F92AF92BF92CF92DF9211
:1004D000EF92FF926B017C010E943D024B015C0197
:1004E000C114D104E104F104F1F00E943D02DC01E9
:1004F000CB0188199909AA09BB09883E9340A10537
:10050000B10570F321E0C21AD108E108F10888EEC4
:10051000880E83E0981EA11CB11CC114D104E10413
:10052000F10419F7DDCFFF90EF90DF90CF90BF90EF
:10053000AF909F908F900895FC0162830895FC0115
:1005400082810895CF93DF93EC01E881F9810284E1
:10055000F385E02D60E0099560E08B81DF91CF911C
:100560000C94DA01CF93DF93EC01E881F9810284E6
:10057000F385E02D61E0099561E08B81DF91CF91FA
:100580000C94DA01CF93DF93EC01EE81E23108F0B5
:10059000E251F0E0E653FF4FE49180917B00E3FBF2
:1005A000222720F930E045E0220F331F4A95E1F77A
:1005B0008F7D282B20937B00E770E064E0937C0024
:1005C00080917A00806480937A0080917A0086FD21
:1005D000FCCF609178008091790070E0782B072E35
:1005E000000C880B990B0E94990CEA81FB81E23088
:1005F000F10538F0EE0FFF1FEE0FFF1F3597319713
:10060000F1F72C813D812115310541F02130310573
:1006100061F42C853D854E855F8504C0288539852C
:100620004A855B850E94230E04C060E070E080E88C
:100630009FEBDF91CF910895DC01ED91FC91068055
:10064000F781E02D09940F931F93CF93DF931F92AF
:10065000CDB7DEB782E0898342E450E065EF70E019
:1006600080E80E943C010E940C07DC0112960D916B
:100670001C9113970115110569F0D801ED91FC91BA
:100680000280F381E02DBE016F5F7F4FC8010995A5
:1006900097FF07C089810F90DF91CF911F910F9134
:1006A0000895F80100851185E5CF8F929F92AF9252
:1006B000BF92CF92DF92EF92FF920F931F93CF934F
:1006C000DF935C016B017A0180910B01882309F4AF
:1006D0005BC08091A801882309F456C08091A501D0
:1006E00080FF05C08091E00082608093E000E70118
:1006F00010E00AEF83E0882E9AE3992E2097D9F133
:100700000E94FB0681110AC0015009F43DC061E05E
:1007100070E080E090E00E946202F0CF282F30E08D
:10072000C217D3070CF48C2F4FB7F8948092E900CE
:100730009091E80095FF1DC0282F30E0C21BD30B1D
:10074000F601982F915020F081918093F100FACF1B
:10075000C20ED31E112319F09092E80009C08091B7
:10076000E80085FD06C09092E80011E0209709F0AE
:1007700010E04FBFC3CF1111C3CF5D9884E68093C3
:10078000A6011E141F0444F081E090E0F50193835C
:10079000828380E090E001C0C701DF91CF911F917B
:1007A0000F91FF90EF90DF90CF90BF90AF909F9010
:1007B0008F9008950E94FB0690E008950F931F9379
:1007C000CF93DF931F92CDB7DEB78C01FC018485F8
:1007D000958597FF0EC0CE0101960E94D106019724
:1007E00019F4298130E002C02FEF3FEFF80135877F
:1007F0002487F801848595850F90DF91CF911F9113
:100800000F910895CF93DF931F92CDB7DEB7FC0110
:100810008485958597FD05C02FEF3FEF35872487A9
:100820000BC0CE0101960E94D106019719F489816F
:1008300090E002C08FEF9FEF0F90DF91CF9108956E
:100840000E94CD0F8BE891E00C94350F0C94350F7E
:100850000C94350F1F920F920FB60F921124CF9266
:10086000DF92EF92FF920F931F932F933F934F933B
:100870005F936F937F938F939F93AF93BF93EF9308
:10088000FF93CF93DF93CDB7DEB76C97DEBFCDBFBD
:100890001092E9008091E80083FFEDC168E0CE018D
:1008A00045960E94630182EF8093E8008D8987FF5F
:1008B00005C09091E80090FFFCCF03C09EEF90939D
:1008C000E800982F907609F0C6C09E892F89188D70
:1008D00091110CC0803829F48091A4018093F1001B
:1008E00002C01092F1001092F10048C1422F50E076
:1008F000512B913051F4811141C14130510509F022
:100900003DC18091A4018D7F0BC0933061F48111B2
:1009100035C14130510509F031C18091A401826097
:100920008093A4012BC1953041F48091E80080FFB1
:10093000FCCF20682093E30021C1963009F05FC00E
:10094000EB8CFC8C1092E9001092A2011092A10194
:10095000123091F51092A00110929F010E94230382
:1009600099E0BE016F5F7F4FDB01E92F1D92EA9591
:10097000E9F799831A8391E09E8390EA98879AEF2A
:1009800099872091A1013091A201275F3F4F3C83BD
:100990002B838D831092E9001092A2011092A10185
:1009A000F092A001E0929F0149E050E080E00E94B7
:1009B0003C010E942303E2C0F092A001E0929F015B
:1009C0000E940C07DC011296ED90FC901397E11445
:1009D000F10409F4C0C0D701ED91FC910480F581C8
:1009E000E02DBE016B5E7F4FC7010995009719F09E
:1009F0000CF0C4C0C7C0F701E084F184E8CF9730A1
:100A000009F4C0C0983021F481E08093F100B6C0B1
:100A1000993009F0B3C0837009F0B4C0E3E1F1E0AC
:100A200081E021E036E39081992361F08093E90031
:100A30002093EB0091919093EC003093ED008F5F49
:100A4000873089F78EE78093EA001092EA008F8959
:100A50008093A80193C08B8D9C8D1092E900109219
:100A6000A2011092A1019093A00180939F01898D12
:100A7000811156C08E899D89913A59F4813209F0CD
:100A800081C047E050E064E071E080E00E943C01FA
:100A900075C0913209F076C0833289F4888D90E078
:100AA000982F88272F89822BA0E0B0E08093000147
:100AB00090930101A0930201B09303015FC08032C3
:100AC00069F48091E80082FFFCCF67E084E091E068
:100AD0000E9463018BEF8093E80006C0823209F028
:100AE0004DC08F8980930B018091A301882319F059
:100AF000EEEFFAE002C0E0E0F8E0809104019091AE
:100B00000501A0910601B0910701803B9440A10529
:100B1000B10509F07BC080910B0180FF93C076C0C6
:100B20000E940C07DC0112960D911C911397011580
:100B3000110541F1D801ED91FC910190F081E02D7A
:100B4000BE016B5E7F4FC8010995811117C0F80186
:100B500000851185ECCF113009F44EC0133091F4AB
:100B60008F89882309F445C0823081F440E860E130
:100B700089E591E00E949207882321F08EEF80930F
:100B8000E80079C081E28093EB0075C0813029F4E0
:100B900040E86BE08DE491E0EDCF833099F70E945F
:100BA0000C07DC011296ED90FC9013978E010F5FFD
:100BB0001F4F6801E114F10479F0D701ED91FC9128
:100BC0000680F781E02DB801C7010995080F111DB6
:100BD000F701E084F184EECFD8011C92F601019078
:100BE0000020E9F73197BF016C197D0940E0C6018B
:100BF000C1CF67E371E002C06BE371E0611571057D
:100C000009F2FB01449150E080E840CF0FB6F89420
:100C1000A8958091600088618093600010926000C8
:100C20000FBEA895EE3F2AE0F20739F08091FE0A48
:100C30009091FF0A91838083A1CF1092FF0A1092B6
:100C4000FE0A9CCFEE3F8AE0F80731F08081918167
:100C50009093FF0A8093FE0A87E797E7918380834A
:100C60009BE088E10FB6F894A895809360000FBED2
:100C70009093600083CF6C960FB6F894DEBF0FBEE2
:100C8000CDBFDF91CF91FF91EF91BF91AF919F9138
:100C90008F917F916F915F914F913F912F911F9114
:100CA0000F91FF90EF90DF90CF900F900FBE0F90BD
:100CB0001F9018952FB7F89460918101709182016F
:100CC00080918301909184012FBF08951F920F920C
:100CD0000FB60F9211242F933F938F939F93AF934F
:100CE000BF938091810190918201A0918301B09185
:100CF00084013091800123E0230F2D3720F40196E9
:100D0000A11DB11D05C026E8230F0296A11DB11D2E
:100D1000209380018093810190938201A0938301AD
:100D2000B09384018091850190918601A091870103
:100D3000B09188010196A11DB11D8093850190930A
:100D40008601A0938701B0938801BF91AF919F91D5
:100D50008F913F912F910F900FBE0F901F9018957C
:100D60000895089590E0FC01EB55FE4F2491FC019D
:100D7000EA57FE4F8491882399F090E0880F991FDD
:100D8000FC01E858FE4FA591B491FC01E659FE4FD5
:100D9000859194918FB7F894EC91E22BEC938FBFEF
:100DA0000895FC018091A801811103C08FEF9FEF8E
:100DB00008959FB7F89482E08093E9002091F200B3
:100DC00030E01216130614F421E030E0211531054D
:100DD00059F0289884E68093A7018091F1008083E0
:100DE0008091F200882319F09FBFC90108958BE616
:100DF0008093E800F9CF2FB7F89483E08093E9005F
:100E00009091E800892F807295FF04C09091F200C4
:100E100080E4891B2FBF08958091190381110DC0B3
:100E200082E08093150384E08093160310921803E8
:100E30001092170381E08093190385E193E00895F0
:100E40001F920F920FB60F9211248F939F93809150
:100E5000E1009091E100937F9093E10083FF0FC048
:100E60001092E90091E09093EB001092EC0092E375
:100E70009093ED001092A80198E09093F00082FF0B
:100E800020C093E09093E9009091F200992319F02B
:100E90009AE39093E8009091A601992339F09091FC
:100EA000A60191509093A601992389F19091A701F1
:100EB000992339F09091A70191509093A70199231C
:100EC00041F184FF10C08091E2008E7E81608093AA
:100ED000E2008091E1008F7E8093E1008091A50186
:100EE0008E7E806111C080FF16C08091E2008E7EF0
:100EF00080618093E2008091E1008E7E8093E1002A
:100F00008091A5018E7E81608093A50104C05D9AC9
:100F1000CDCF289AD6CF9F918F910F900FBE0F9073
:100F20001F901895CF92DF92EF92FF920F931F932D
:100F3000CF93DF931F92CDB7DEB7182F062FE42E85
:100F4000862F880F8E5F99830E940E0183E00E9496
:100F50000E01F12EC12E9981D92E8C2D8F1980175B
:100F600098F4F601E7FE02C0849101C080810E94DE
:100F70000E01182F80E00E940E018123FFEFCF1A8F
:100F8000DF0A8111EACF01C081E00F90DF91CF919C
:100F90001F910F91FF90EF90DF90CF900895CF9326
:100FA000DF9300D000D000D0CDB7DEB7789484B501
:100FB000826084BD84B5816084BD85B5826085BD55
:100FC00085B5816085BD80916E00816080936E00E3
:100FD00010928100809181008260809381008091D5
:100FE0008100816080938100809180008160809386
:100FF00080008091910082608093910080919100A7
:101000008160809391008091900081608093900036
:101010008091C10084608093C1008091C100826092
:101020008093C1008091C10081608093C100809154
:10103000C30081608093C3008091C0008260809370
:10104000C0008091C20081608093C20080917A00CC
:10105000846080937A0080917A00826080937A0025
:1010600080917A00816080937A0080917A00806814
:1010700080937A001092A8011092A4011092A50109
:101080008091D70081608093D70080EA8093D80058
:1010900089B5806189BD89B5826089BD09B400FECA
:1010A000FDCF61E070E080E090E00E9462028091FC
:1010B000D8008F7C80618093D8008091E000807F91
:1010C0008093E0008091E1008E7E8093E1008DE0CE
:1010D0008093E200559A209AEEEFFFE78591949174
:1010E0008B3F9C4D19F481E08093A30110923D0247
:1010F00010923E0210923F02109240021092FB01A9
:101100001092FC011092FD011092FE010E945A06FD
:101110006B017C014B015C0188EB880E8BE0981E13
:10112000A11CB11C0E945A066C157D058E059F05F9
:1011300028F086169706A806B906A0F789EA91E076
:1011400090933C0280933B025BE1E52EF12C1091E1
:101150000B016AE070E080E090E00E9462021111F1
:101160000BC091E0E91AF10839F064E670E080E024
:1011700090E00E946202EBCFE0913B02F0913C02D2
:101180008FEF9FEF958784870E945A066093FB013B
:101190007093FC018093FD019093FE0180913B02CE
:1011A00090913C02DC01ED91FC910280F381E02DF5
:1011B00041E150E06DE671E009950E945A066B012D
:1011C0007C014B015C01BAE08B0E911CA11CB11C8F
:1011D0000E945A066C157D058E059F0528F086161F
:1011E0009706A806B906A0F781E080930F02109237
:1011F000E2021092AE0210927A02809189019091DF
:101200008A01FC01EE0FFF1FE557FE4F22EB32E093
:10121000318320830196FC01EE0FFF1FE557FE4F3F
:101220002EE732E0318320830196FC01EE0FFF1F91
:10123000E557FE4F2AE432E03183208301969093F4
:101240008A01809389010E945A06009141021091FF
:1012500042022091430230914402AB01BC01401B89
:10126000510B620B730B8091450290914602092E3F
:10127000000CAA0BBB0B84179507A607B70738F01D
:10128000E0E0F0E0EF2BF9F20E940000DCCF0E94DA
:101290005A066093410270934202809343029093F6
:1012A00044028BE8282E81E0382E00E010E0809187
:1012B000890190918A010817190714F7D101ED915E
:1012C000FD911D01FE83ED8383A9882379F084813C
:1012D0009581DC01ED91FC910480F581E02D09956B
:1012E000ED81FE8164A375A386A397A3AD81BE8122
:1012F00090964D905D906D907C90939754962D9123
:101300003D914D915C915797C301B2010E94B70D79
:101310009B01AC01C301B2010E94230E69837A8351
:101320008B839C83ED81FE8180889188A288B3881D
:101330000684F785E02DA501940160817181828189
:1013400093810E94B60D9B01AC0169817A818B81EA
:101350009C810E94F80C9B01AC01C501B4010E9464
:10136000B70D6B017C0129813A814B815C8160E082
:1013700070E080E89FE30E94B60DA30192010E94F5
:10138000F80C2B013C01A7019601C501B4010E9494
:10139000B60D9F77AD81BE815C962D913D914D91AB
:1013A0005C915F970E94F80C9B01AC01C301B201F4
:1013B0000E94B70DED81FE8160A371A382A393A368
:1013C000C08AD18AE28AF38AC4A2D5A2E6A2F7A291
:1013D00080A491A4A2A4B3A4A5019401C701B6015D
:1013E0000E94950E181644F4AD81BE81D0968C9162
:1013F000D097882301F10FC0A5019401C701B60160
:101400000E94920C87FF1FC0ED81FE8180A981118F
:101410001AC0AD81BE81D2968C91D2978823F1F00B
:1014200012968D919C911397DC01ED91FC910480B3
:10143000F581E02D12C0A5019401C701B6010E94FB
:10144000920C87FDE6CFED81FE8182819381DC01E4
:10145000ED91FC910680F781E02D09950F5F1F4FFC
:1014600026CF08954F925F926F927F928F929F92B4
:10147000AF92BF92CF92DF92EF92FF920F931F93A2
:10148000CF93DF931092AC011092AB0188EE93E002
:10149000A0E0B0E08093AD019093AE01A093AF01C6
:1014A000B093B0018DE191E09093AA018093A901DE
:1014B0008FEF9FEF9093B6018093B5011092FF01DB
:1014C0001092000210920102109202021092030286
:1014D0001092040210920502109206021092070266
:1014E000109208021092090210920A0210920B0246
:1014F00010920C0210920D0210920E02E5E6F1E03D
:10150000F0930603E09305032CE330E030930803E7
:101510002093070381E090E090930A0380930903EE
:10152000C12CD12CE12C40E4F42EC0920D03D092BA
:101530000E03E0920F03F092100346E253E969E4D0
:101540007FE340931103509312036093130370934E
:10155000140390930C0380930B0305EF12E0F093B8
:10156000F602E093F5023093F8022093F70290938D
:10157000FA028093F902C092FD02D092FE02E0923C
:10158000FF02F09200034093010350930203609323
:101590000303709304031092FC021092FB02CFE34A
:1015A000D1E0D093F102C093F00285E00E94B20630
:1015B00085E090E09093F4028093F302D093EC02E4
:1015C000C093EB0287E00E94B20687E090E0909320
:1015D000EF028093EE02D093E702C093E60286E02A
:1015E0000E94B20686E090E09093EA028093E902BE
:1015F0004AE057ED63EA7CE34093B8025093B902A6
:101600006093BA027093BB0280E090E0A8ECB1E472
:101610008093BC029093BD02A093BE02B093BF0220
:101620008093C6029093C702A093C802B093C902E8
:101630008093CA029093CB02A093CC02B093CD02C8
:101640004093CE025093CF026093D0027093D102A8
:1016500026ED32E03093C1022093C0028090D60282
:101660009090D702A090D802B090D9028092C20286
:101670009092C302A092C402B092C5028093D2029B
:101680009093D302A093D402B093D5021092D602C5
:101690001092D7021092D8021092D902C092DE02A4
:1016A000D092DF02E092E002F092E102C1E0C0934A
:1016B000E2021092E30220EF32E03093B502209371
:1016C000B40225E033E03093B7022093B602812CB8
:1016D000912CECE8AE2EE2E4BE2E8092DA029092DB
:1016E000DB02A092DC02B092DD02C093E402C09360
:1016F000E5021092B3021092B2024093840250931A
:10170000850260938602709387028093880290938B
:101710008902A0938A02B0938B02809392029093E5
:101720009302A0939402B0939502809396029093B3
:101730009702A0939802B093990240939A02509313
:101740009B0260939C0270939D0222EA32E03093E8
:101750008D0220938C024090A2025090A3026090D0
:10176000A4027090A50240928E0250928F02609265
:1017700090027092910280939E0290939F02A09398
:10178000A002B093A1021092A2021092A3021092A2
:10179000A4021092A502C092AA02D092AB02E092DB
:1017A000AC02F092AD02C093AE021092AF022BEEEB
:1017B00032E03093810220938002109383020093E1
:1017C00082028092A6029092A702A092A802B092F2
:1017D000A902C093B002C093B10210927F0210928E
:1017E0007E024093500250935102609352027093D4
:1017F00053028093540290935502A0935602B093E3
:10180000570280935E0290935F02A0936002B093B0
:1018100061028093620290936302A0936402B0938A
:10182000650240936602509367026093680270936A
:1018300069022EE632E0309359022093580240911B
:101840006E0250916F02609170027091710240932C
:101850005A0250935B0260935C0270935D02809326
:101860006A0290936B02A0936C02B0936D02109287
:101870006E0210926F021092700210927102C0926A
:101880007602D0927702E0927802F0927902C093C9
:101890007A0210927B0286EE92E090934D02809342
:1018A0004C0210934F0200934E028092720290926B
:1018B0007302A0927402B0927502C0937C02C0932E
:1018C0007D0210924B0210924A02809121038111F5
:1018D00012C082E390E090934602809345020E94FA
:1018E0005A066093410270934202809343029093A0
:1018F0004402C093210387E492E0909349028093CD
:101900004802DF91CF911F910F91FF90EF90DF90F0
:10191000CF90BF90AF909F908F907F906F905F908F
:101920004F9008950E94D40C08F481E00895E89443
:1019300009C097FB3EF490958095709561957F4F17
:101940008F4F9F4F9923A9F0F92F96E9BB279395C5
:10195000F695879577956795B795F111F8CFFAF4D5
:10196000BB0F11F460FF1BC06F5F7F4F8F4F9F4F06
:1019700016C0882311F096E911C0772321F09EE864
:10198000872F762F05C0662371F096E8862F70E0CA
:1019900060E02AF09A95660F771F881FDAF7880FA4
:1019A0009695879597F90895990F0008550FAA0BFA
:1019B000E0E8FEEF16161706E807F907C0F0121662
:1019C0001306E407F50798F0621B730B840B950B65
:1019D00039F40A2661F0232B242B252B21F40895BA
:1019E0000A2609F4A140A6958FEF811D811D089557
:1019F0000E940B0D0C947C0D0E946E0D38F00E941D
:101A0000750D20F0952311F00C94650D0C946B0D61
:101A100011240C94B00D0E948D0D70F3959FC1F3AD
:101A2000950F50E0551F629FF001729FBB27F00D8C
:101A3000B11D639FAA27F00DB11DAA1F649F6627E1
:101A4000B00DA11D661F829F2227B00DA11D621F30
:101A5000739FB00DA11D621F839FA00D611D221FEA
:101A6000749F3327A00D611D231F849F600D211DCE
:101A7000822F762F6A2F11249F5750409AF0F1F051
:101A800088234AF0EE0FFF1FBB1F661F771F881FBA
:101A900091505040A9F79E3F510580F00C94650D80
:101AA0000C94B00D5F3FE4F3983ED4F386957795A0
:101AB0006795B795F795E7959F5FC1F7FE2B880F60
:101AC000911D9695879597F9089597F99F6780E8F6
:101AD00070E060E008959FEF80EC089500240A9480
:101AE0001616170618060906089500240A941216F9
:101AF0001306140605060895092E0394000C11F42C
:101B0000882352F0BB0F40F4BF2B11F460FF04C0D8
:101B10006F5F7F4F8F4F9F4F089557FD9058440F31
:101B2000551F59F05F3F71F04795880F97FB991F3C
:101B300061F09F3F79F087950895121613061406F9
:101B4000551FF2CF4695F1DF08C016161706180686
:101B5000991FF1CF86957105610508940895E89461
:101B6000BB2766277727CB0197F908955058BB27E5
:101B7000AA270E94CE0D0C947C0D0E946E0D38F0A9
:101B80000E94750D20F039F49F3F19F426F40C944F
:101B90006B0D0EF4E095E7FB0C94650DE92F0E94A8
:101BA0008D0D58F3BA17620773078407950720F065
:101BB00079F4A6F50C94AF0D0EF4E0950B2EBA2F28
:101BC000A02D0B01B90190010C01CA01A001112443
:101BD000FF27591B99F0593F50F4503E68F11A16EF
:101BE000F040A22F232F342F4427585FF3CF469580
:101BF00037952795A795F0405395C9F77EF41F16A2
:101C0000BA0B620B730B840BBAF09150A1F0FF0F6B
:101C1000BB1F661F771F881FC2F70EC0BA0F621F57
:101C2000731F841F48F4879577956795B795F79547
:101C30009E3F08F0B0CF9395880F08F09927EE0FDC
:101C40009795879508950E94370E0C947C0D0E94FD
:101C5000750D58F00E946E0D40F029F45F3F29F099
:101C60000C94650D51110C94B00D0C946B0D0E94E9
:101C70008D0D68F39923B1F3552391F3951B550B03
:101C8000BB27AA2762177307840738F09F5F5F4F4F
:101C9000220F331F441FAA1FA9F335D00E2E3AF08E
:101CA000E0E832D091505040E695001CCAF72BD0A6
:101CB000FE2F29D0660F771F881FBB1F26173707F7
:101CC0004807AB07B0E809F0BB0B802DBF01FF2729
:101CD00093585F4F3AF09E3F510578F00C94650D94
:101CE0000C94B00D5F3FE4F3983ED4F3869577955E
:101CF0006795B795F7959F5FC9F7880F911D9695E2
:101D0000879597F90895E1E0660F771F881FBB1F3D
:101D1000621773078407BA0720F0621B730B840BEA
:101D2000BA0BEE1F88F7E09508950E94D40C08F4D2
:101D30008FEF0895EE0FFF1F0590F491E02D0994A9
:101D4000CF93DF938230910510F482E090E0E09130
:101D50002B03F0912C0320E030E0C0E0D0E030977E
:101D600011F14081518148175907C0F048175907B0
:101D700061F482819381209719F09B838A832BC021
:101D800090932C0380932B0326C02115310519F065
:101D90004217530718F49A01BE01DF01EF010280D8
:101DA000F381E02DDCCF2115310509F1281B390B1A
:101DB0002430310590F412968D919C911397611502
:101DC000710521F0FB019383828304C090932C035F
:101DD00080932B03FD01329644C0FD01E20FF31FF7
:101DE00081939193225031092D933C933AC02091D5
:101DF000290330912A03232B41F420910E013091C5
:101E00000F0130932A032093290320910C01309174
:101E10000D012115310541F42DB73EB74091100158
:101E200050911101241B350BE0912903F0912A03F5
:101E3000E217F307A0F42E1B3F0B2817390778F0A1
:101E4000AC014E5F5F4F2417350748F04E0F5F1F00
:101E500050932A03409329038193919302C0E0E0B9
:101E6000F0E0CF01DF91CF9108950F931F93CF93AF
:101E7000DF93009709F48CC0FC0132971382128221
:101E800000912B0310912C030115110581F4208181
:101E90003181820F931F2091290330912A03281743
:101EA000390779F5F0932A03E093290371C0D8012B
:101EB00040E050E0AE17BF0750F412962D913C91D0
:101EC0001397AD012115310509F1D901F3CF9D011A
:101ED000DA013383228360817181860F971F821715
:101EE000930769F4EC0128813981260F371F2E5F93
:101EF0003F4F318320838A819B8193838283452B4B
:101F000029F4F0932C03E0932B0342C01396FC9327
:101F1000EE931297ED01499159919E01240F351FBF
:101F2000E217F30771F480819181840F951F029667
:101F300011969C938E938281938113969C938E939A
:101F40001297E0E0F0E0D80112968D919C911397E2
:101F5000009719F0F8018C01F6CF8D919C919801B2
:101F60002E5F3F4F820F931F2091290330912A0348
:101F70002817390769F4309729F410922C0310922E
:101F80002B0302C01382128210932A0300932903A9
:101F9000DF91CF911F910F91089581E090E0F89427
:101FA0000C94D20F10E0C3EED0E004C0FE010E94FA
:0E1FB0009A0E2196C43ED107C9F7F894FFCFD0
:101FBE00FFFFFFFF00E100000000000000002D0306
:101FCE00800000C18081000000000000009B0155D0
:101FDE0003DA03B101BC010204DE030000000000BD
:101FEE00000000200420049F029C0200000000B1AB
:101FFE00062804B202A2029F029C0200000000000A
:10200E00000000200400000000000000001C03205F
:10201E000400000000B00626041C03C202564D4404
:10202E0050565F317C315F564D4450560D0A0000BC
:00000001FF
