:100000000C94E4000C940C010C940C010C940C0165
:100010000C940C010C940C010C940C010C940C012C
:100020000C940C010C940C010C941D070C942804E6
:100030000C940C010C940C010C940C010C940C010C
:100040000C940C010C940C010C940C010C940C01FC
:100050000C940C010C940C010C940C010C9464068F
:100060000C940C010C940C010C940C010C940C01DC
:100070000C940C010C940C010C940C010C940C01CC
:100080000C940C010C940C010C940C010C940C01BC
:100090000C940C010C940C010C940C010C940C01AC
:1000A0000C940C010C940C010C940C010502080238
:1000B000F701FB01FF012902290229020C021002AB
:1000C00014021A021E022902240207060504010076
:1000D000080A0B0C0D090000000200090F000003C4
:1000E0000401000C000000000000000000000000FF
:1000F0000000000000080B000202020100090400D9
:100100000001020200000524001001052401010184
:10011000042402060524060001070581031000409F
:1001200009040100020A0000000705020240000065
:10013000070583024000000403090412010002EFD6
:100140000201404123368000010102030141726433
:1001500075696E6F204C4C430041726475696E6F17
:10016000204C656F6E6172646F0000000000250016
:1001700028002B002E003100000000002400270082
:100180002A002D00300004040404040304050202C4
:100190000202040302020202060606060606040420
:1001A00002020204040408020110408040102040B2
:1001B000804080080204018040201002011080105D
:1001C00020404020D10AD00A11241FBECFEFDAE030
:1001D000DEBFCDBF23E0A6E6B1E001C01D92A5328F
:1001E000B207E1F711E0A0E0B1E0E6E7F0E202C01B
:1001F00005900D92A636B107D9F710E0C3EED0E016
:1002000004C02197FE010E94F60EC23ED107C9F735
:100210000E94CC070C942E100C9400004091870192
:100220005091880120918501309186014217530732
:10023000B4F49091E8009570E1F39091E80092FD9C
:1002400019C08093F10080918701909188010196F7
:100250008F739927892B19F48EEF8093E800809192
:10026000870190918801019690938801809387017E
:1002700081E0089580E00895DF92EF92FF920F935E
:100280001F93CF93DF93D82E8A017B01E40EF51ED6
:10029000EB01CE15DF0571F0D7FE03C0FE0184919E
:1002A00001C088810E940E0121968111F2CF8FEF4B
:1002B0009FEF01C0C801DF91CF911F910F91FF9077
:1002C000EF90DF900895615030F02091F100FC0133
:1002D00020830196F8CF289884E680938D010895B5
:1002E000CF92DF92EF92FF920F931F93CF93DF9302
:1002F0006C017A018B01C0E0D0E0CE15DF0589F0FA
:10030000D8016D918D01D601ED91FC910190F081A4
:10031000E02DC6010995892B11F47E0102C02196BA
:10032000ECCFC701DF91CF911F910F91FF90EF901C
:10033000DF90CF900895CF93DF931F92CDB7DEB7B4
:100340006983DC01ED91FC910280F381E02D41E0B5
:1003500050E0BE016F5F7F4F09950F90DF91CF9105
:10036000089583E08093E9008091F200882319F0DA
:100370008AE38093E8000895FC018485958597FDC4
:100380000BC09FB7F89482E08093E9008091F2005F
:100390009FBF90E0019608959FB7F89482E0809304
:1003A000E9008091F2009FBF90E00895089580E0F9
:1003B00090E00895362F90E0FC01EA52FF4F4491FF
:1003C000FC01EB55FE4F2491FC01EA57FE4F84914E
:1003D000882309F451C04423E1F150E0FA01319738
:1003E000EF30F105B0F5EA5AFF4F0C94F60E9091FC
:1003F00080009F7707C0909180009F7D03C09091FF
:100400008000977F9093800024C094B59F7702C0AE
:1004100094B59F7D94BD1DC0909190009F7707C0BB
:10042000909190009F7D03C090919000977F909352
:1004300090000FC09091C0009F7703C09091C000C2
:100440009F7D9093C00005C09091C200977F9093CC
:10045000C200E82FF0E0EE0FFF1FE659FE4FA59116
:10046000B4918FB7F894EC91311103C020952E23ED
:1004700001C02E2B2C938FBF08953FB7F894809125
:100480006B0190916C01A0916D01B0916E0126B548
:10049000A89B05C02F3F19F00196A11DB11D3FBFBC
:1004A000BA2FA92F982F8827820F911DA11DB11D4A
:1004B000BC01CD0142E0660F771F881F991F4A9546
:1004C000D1F708958F929F92AF92BF92CF92DF9211
:1004D000EF92FF926B017C010E943D024B015C0197
:1004E000C114D104E104F104F1F00E943D02DC01E9
:1004F000CB0188199909AA09BB09883E9340A10537
:10050000B10570F321E0C21AD108E108F10888EEC4
:10051000880E83E0981EA11CB11CC114D104E10413
:10052000F10419F7DDCFFF90EF90DF90CF90BF90EF
:10053000AF909F908F900895FC0162830895FC0115
:1005400082810895CF93DF93EC01EE81E23108F0D0
:10055000E251F0E0E653FF4FE49180917B00E3FB32
:10056000222720F930E045E0220F331F4A95E1F7BA
:100570008F7D282B20937B00E770E064E0937C0064
:1005800080917A00806480937A0080917A0086FD61
:10059000FCCF609178008091790070E0782B072E75
:1005A000000C880B990B0E94F50CEA81FB81E2306C
:1005B000F10538F0EE0FFF1FEE0FFF1F3597319753
:1005C000F1F72C813D812115310541F021303105B4
:1005D00061F42C853D854E855F8504C0288539856D
:1005E0004A855B850E947F0E04C060E070E080E871
:1005F0009FEBDF91CF910895DC01ED91FC9102809A
:10060000F381E02D0994CF93DF93EC01E881F98128
:100610000284F385E02D60E0099560E08B81DF9135
:10062000CF910C94DA01CF93DF93EC01E881F9814B
:100630000284F385E02D61E0099561E08B81DF9113
:10064000CF910C94DA010F931F93CF93DF931F92F6
:10065000CDB7DEB782E0898342E450E065EF70E019
:1006600080E80E943C010E940907DC0112960D916E
:100670001C9113970115110569F0D801ED91FC91BA
:100680000280F381E02DBE016F5F7F4FC8010995A5
:1006900097FF07C089810F90DF91CF911F910F9134
:1006A0000895F80100851185E5CF8F929F92AF9252
:1006B000BF92CF92DF92EF92FF920F931F93CF934F
:1006C000DF935C016B017A0180910B01882309F4AF
:1006D0005BC080918E01882309F456C080918B0104
:1006E00080FF05C08091E00082608093E000E70118
:1006F00010E00AEF83E0882E9AE3992E2097D9F133
:100700000E94F80681110AC0015009F43DC061E061
:1007100070E080E090E00E946202F0CF282F30E08D
:10072000C217D3070CF48C2F4FB7F8948092E900CE
:100730009091E80095FF1DC0282F30E0C21BD30B1D
:10074000F601982F915020F081918093F100FACF1B
:10075000C20ED31E112319F09092E80009C08091B7
:10076000E80085FD06C09092E80011E0209709F0AE
:1007700010E04FBFC3CF1111C3CF5D9884E68093C3
:100780008C011E141F0444F081E090E0F501938376
:10079000828380E090E001C0C701DF91CF911F917B
:1007A0000F91FF90EF90DF90CF90BF90AF909F9010
:1007B0008F9008950E94F80690E008950F931F937C
:1007C000CF93DF931F92CDB7DEB78C01FC018485F8
:1007D000958597FF0EC0CE0101960E94CE06019727
:1007E00019F4298130E002C02FEF3FEFF80135877F
:1007F0002487F801848595850F90DF91CF911F9113
:100800000F910895CF93DF931F92CDB7DEB7FC0110
:100810008485958597FD05C02FEF3FEF35872487A9
:100820000BC0CE0101960E94CE06019719F4898172
:1008300090E002C08FEF9FEF0F90DF91CF9108956E
:100840000E94291081E791E00C94910F0C94910F74
:100850001F920F920FB60F921124CF92DF92EF9258
:10086000FF920F931F932F933F934F935F936F9339
:100870007F938F939F93AF93BF93EF93FF93CF9308
:10088000DF93CDB7DEB76C97DEBFCDBF1092E90026
:100890008091E80083FFEDC168E0CE0145960E949B
:1008A000630182EF8093E8008D8987FF05C09091F6
:1008B000E80090FFFCCF03C09EEF9093E800982FD4
:1008C000907609F0C6C09E892F89188D91110CC0B1
:1008D000803829F480918A018093F10002C010923F
:1008E000F1001092F10048C1422F50E0512B91309D
:1008F00051F4811141C14130510509F03DC1809150
:100900008A018D7F0BC0933061F4811135C1413074
:10091000510509F031C180918A01826080938A017A
:100920002BC1953041F48091E80080FFFCCF206816
:100930002093E30021C1963009F05FC0EB8CFC8C62
:100940001092E9001092880110928701123091F5FF
:1009500010928601109285010E94230399E0BE0146
:100960006F5F7F4FDB01E92F1D92EA95E9F79983CD
:100970001A8391E09E8390EA98879AEF9987209155
:10098000870130918801275F3F4F3C832B838D8304
:100990001092E9001092880110928701F09286016E
:1009A000E092850149E050E080E00E943C010E9415
:1009B0002303E2C0F0928601E09285010E940907BC
:1009C000DC011296ED90FC901397E114F10409F408
:1009D000C0C0D701ED91FC910480F581E02DBE01EE
:1009E0006B5E7F4FC7010995009719F00CF0C4C0EA
:1009F000C7C0F701E084F184E8CF973009F4C0C0A4
:100A0000983021F481E08093F100B6C0993009F06C
:100A1000B3C0837009F0B4C0E3E1F1E081E021E00C
:100A200036E39081992361F08093E9002093EB00F5
:100A300091919093EC003093ED008F5F873089F7B0
:100A40008EE78093EA001092EA008F8980938E01EE
:100A500093C08B8D9C8D1092E900109288011092AA
:100A600087019093860180938501898D811156C0FD
:100A70008E899D89913A59F4813209F081C047E00D
:100A800050E064E071E080E00E943C0175C091326A
:100A900009F076C0833289F4888D90E0982F8827FA
:100AA0002F89822BA0E0B0E0809300019093010198
:100AB000A0930201B09303015FC0803269F480917A
:100AC000E80082FFFCCF67E084E091E00E946301D0
:100AD0008BEF8093E80006C0823209F04DC08F8909
:100AE00080930B0180918901882319F0EEEFFAE0E1
:100AF00002C0E0E0F8E08091040190910501A0912E
:100B00000601B0910701803B9440A105B10509F0B1
:100B10007BC080910B0180FF93C076C00E940907C3
:100B2000DC0112960D911C9113970115110541F1ED
:100B3000D801ED91FC910190F081E02DBE016B5E3A
:100B40007F4FC8010995811117C0F80100851185F3
:100B5000ECCF113009F44EC0133091F48F89882303
:100B600009F445C0823081F440E860E189E591E014
:100B70000E948F07882321F08EEF8093E80079C0D0
:100B800081E28093EB0075C0813029F440E86BE08E
:100B90008DE491E0EDCF833099F70E940907DC01E5
:100BA0001296ED90FC9013978E010F5F1F4F680116
:100BB000E114F10479F0D701ED91FC910680F78101
:100BC000E02DB801C7010995080F111DF701E08458
:100BD000F184EECFD8011C92F60101900020E9F7D4
:100BE0003197BF016C197D0940E0C601C1CF67E3B1
:100BF00071E002C06BE371E06115710509F2FB0160
:100C0000449150E080E840CF0FB6F894A8958091C9
:100C10006000886180936000109260000FBEA8950C
:100C2000EE3F2AE0F20739F08091FE0A9091FF0A28
:100C300091838083A1CF1092FF0A1092FE0A9CCF6D
:100C4000EE3F8AE0F80731F0808191819093FF0AAE
:100C50008093FE0A87E797E7918380839BE088E192
:100C60000FB6F894A895809360000FBE9093600033
:100C700083CF6C960FB6F894DEBF0FBECDBFDF9169
:100C8000CF91FF91EF91BF91AF919F918F917F9104
:100C90006F915F914F913F912F911F910F91FF9015
:100CA000EF90DF90CF900F900FBE0F901F90189590
:100CB0002FB7F89460916701709168018091690184
:100CC00090916A012FBF08951F920F920FB60F9255
:100CD00011242F933F938F939F93AF93BF93809152
:100CE000670190916801A0916901B0916A0130910A
:100CF000660123E0230F2D3720F40196A11DB11DBD
:100D000005C026E8230F0296A11DB11D20936601A0
:100D10008093670190936801A0936901B0936A0181
:100D200080916B0190916C01A0916D01B0916E0169
:100D30000196A11DB11D80936B0190936C01A0934E
:100D40006D01B0936E01BF91AF919F918F913F91D3
:100D50002F910F900FBE0F901F901895089590E05F
:100D6000FC01EB55FE4F2491FC01EA57FE4F8491A4
:100D7000882399F090E0880F991FFC01E858FE4FF6
:100D8000A591B491FC01E659FE4F859194918FB7DE
:100D9000F894EC91E22BEC938FBF0895FC018091C5
:100DA0008E01811103C08FEF9FEF08959FB7F894D4
:100DB00082E08093E9002091F20030E012161306E1
:100DC00014F421E030E02115310559F0289884E62B
:100DD00080938D018091F10080838091F2008823BF
:100DE00019F09FBFC90108958BE68093E800F9CF01
:100DF0002FB7F89483E08093E9009091E800892F61
:100E0000807295FF04C09091F20080E4891B2FBF8F
:100E100008958091110381110DC082E080930D032C
:100E200084E080930E031092100310920F0381E070
:100E3000809311038DE093E008951F920F920FB6F7
:100E40000F9211248F939F938091E1009091E10084
:100E5000937F9093E10083FF0FC01092E90091E02F
:100E60009093EB001092EC0092E39093ED001092BF
:100E70008E0198E09093F00082FF20C093E0909361
:100E8000E9009091F200992319F09AE39093E80019
:100E900090918C01992339F090918C01915090930D
:100EA0008C01992389F190918D01992339F09091CA
:100EB0008D01915090938D01992341F184FF10C0D1
:100EC0008091E2008E7E81608093E2008091E1005B
:100ED0008F7E8093E10080918B018E7E806111C0B6
:100EE00080FF16C08091E2008E7E80618093E200D8
:100EF0008091E1008E7E8093E10080918B018E7E57
:100F0000816080938B0104C05D9ACDCF289AD6CFA3
:100F10009F918F910F900FBE0F901F901895CF92B9
:100F2000DF92EF92FF920F931F93CF93DF931F9265
:100F3000CDB7DEB7182F062FE42E862F880F8E5FD1
:100F400099830E940E0183E00E940E01F12EC12EB2
:100F50009981D92E8C2D8F19801798F4F601E7FE10
:100F600002C0849101C080810E940E01182F80E090
:100F70000E940E018123FFEFCF1ADF0A8111EACF11
:100F800001C081E00F90DF91CF911F910F91FF90F1
:100F9000EF90DF90CF900895CF93DF93CDB7DEB77A
:100FA00028970FB6F894DEBF0FBECDBF789484B5F6
:100FB000826084BD84B5816084BD85B5826085BD55
:100FC00085B5816085BD80916E00816080936E00E3
:100FD00010928100809181008260809381008091D5
:100FE0008100816080938100809180008160809386
:100FF00080008091910082608093910080919100A7
:101000008160809391008091900081608093900036
:101010008091C10084608093C1008091C100826092
:101020008093C1008091C10081608093C100809154
:10103000C30081608093C3008091C0008260809370
:10104000C0008091C20081608093C20080917A00CC
:10105000846080937A0080917A00826080937A0025
:1010600080917A00816080937A0080917A00806814
:1010700080937A0010928E0110928A0110928B0157
:101080008091D70081608093D70080EA8093D80058
:1010900089B5806189BD89B5826089BD09B400FECA
:1010A000FDCF61E070E080E090E00E9462028091FC
:1010B000D8008F7C80618093D8008091E000807F91
:1010C0008093E0008091E1008E7E8093E1008DE0CE
:1010D0008093E200559A209AEEEFFFE78591949174
:1010E0008B3F9C4D19F481E080938901109223027B
:1010F0001092240210922502109226021092E10111
:101100001092E2011092E3011092E4010E9458064D
:101110006B017C014B015C0188EB880E8BE0981E13
:10112000A11CB11C0E9458066C157D058E059F05FB
:1011300028F086169706A806B906A0F78FE891E072
:1011400090932202809321025BE1E52EF12C109115
:101150000B016AE070E080E090E00E9462021111F1
:101160000BC091E0E91AF10839F064E670E080E024
:1011700090E00E946202EBCFE0912102F091220206
:101180008FEF9FEF958784870E9458066093E10157
:101190007093E2018093E3019093E4018091210236
:1011A00090912202DC01ED91FC910280F381E02D0F
:1011B00041E150E063E571E009950E9458066B013A
:1011C0007C014B015C01BAE08B0E911CA11CB11C8F
:1011D0000E9458066C157D058E059F0528F0861621
:1011E0009706A806B906A0F781E08093F501109252
:1011F000CE021092940210925A0224EC32E0309304
:10120000C9022093C8028093D8022DEF32E03093B8
:10121000DB022093DA022AE832E030938F02209337
:101220008E0280939E022DEE32E03093A102209335
:10123000A00240E552E0509355024093540280933F
:10124000640230936702209366028093D90228EEED
:1012500032E03093DD022093DC0280939F0223EE84
:1012600032E03093A3022093A202809365028EEDB8
:1012700092E0909369028093680280916F0190914F
:101280007001FC01EE0FFF1FEF58FE4F24EA32E021
:10129000318320830196FC01EE0FFF1FEF58FE4FB4
:1012A0002AE632E0318320830196FC01EE0FFF1F16
:1012B000EF58FE4F20E332E0318320830196909374
:1012C000700180936F010E945806009127021091CF
:1012D00028022091290230912A02AB01BC01401B57
:1012E000510B620B730B80912B0290912C02092EF3
:1012F000000CAA0BBB0B84179507A607B70738F09D
:10130000E0E0F0E0EF2BF9F20E940000DCCF0E9459
:1013100058066093270270932802809329029093C5
:101320002A0281E7282E81E0382E00E010E080912B
:101330006F01909170010817190714F7D101ED9111
:10134000FD911D01F887EF8384A9882379F086A990
:1013500097A9DC01ED91FC910190F081E02D0995B8
:10136000EF81F88560A371A382A393A3AF81B885B1
:1013700094960D90BC91A02DBE83AD83EF81F8852E
:10138000448C558C668C778C2089318942895389AD
:10139000C301B2010E94130E9B01AC01C301B20153
:1013A0000E947F0E69837A838B839C83AF81B8858B
:1013B0001C968D909D90AD90BC901F971A96ED91C4
:1013C000FC911B97A50194016081718182819381B9
:1013D0000E94120E9B01AC0169817A818B819C81F4
:1013E0000E94540D9B01AC01C501B4010E94130E73
:1013F0006B017C0129813A814B815C8160E070E066
:1014000080E89FE30E94120EA30192010E94540DF6
:101410002B013C01A7019601C501B4010E94120EE7
:101420009F77EF81F885208D318D428D538D0E94FD
:10143000540D9B01AC01C301B2010E94130EAF8198
:10144000B8855C966D937D938D939C935F97FD011A
:10145000C486D586E686F786AD81BE81CD92DD92C3
:10146000ED92FC92139780819181009721F0019772
:1014700009F440C092C0EF81F88586A097A0A0A48F
:10148000B1A4A5019401C701B6010E94F10E18167E
:1014900044F4AF81B8859A968C919A978823D9F0B5
:1014A0000FC0A5019401C701B6010E94EE0C87FF91
:1014B0001AC0EF81F88582A5811115C0AF81B8856A
:1014C000D5968C91D597882309F467C0D8968D91CD
:1014D0009C91D9974EC0A5019401C701B6010E9405
:1014E000EE0C87FDEBCFEF81F88585A9882309F401
:1014F00054C04AC0EF81F88583A9B5A88823C9F0F4
:1015000023A534A545A556A5C701B6010E94F10E35
:101510001816B4F5AF81B8859F962D913D914D91E8
:101520005C91D297C701B6010E94EE0C87FF28C0DC
:101530001AC0EF81F88523A534A545A556A5C70196
:10154000B6010E94EE0C87FD0EC0AF81B8859F9654
:101550002D913D914D915C91D297C701B6010E94AA
:10156000F10E18166CF4BB20C1F0EF81F88580AD48
:1015700091ADDC01ED91FC910480F581E02D0CC072
:10158000BB2059F0EF81F88580AD91ADDC01ED9184
:10159000FC910680F781E02D09950F5F1F4FC7CEA4
:1015A0000895CF92DF92EF92FF920F931F93CF9304
:1015B000109292011092910188EE93E0A0E0B0E0C9
:1015C0008093930190939401A0939501B093960119
:1015D0008DE191E09093900180938F018FEF9FEFC9
:1015E00090939C0180939B011092E5011092E6017B
:1015F0001092E7011092E8011092E9011092EA01BD
:101600001092EB011092EC011092ED011092EE019C
:101610001092EF011092F0011092F1011092F2017C
:101620001092F3011092F401AFE4B1E0B093FE0226
:10163000A093FD02ECE3F0E0F0930003E093FF02DF
:1016400081E090E0909302038093010300E010E0BA
:1016500020E030E400930503109306032093070372
:101660003093080346E253E969E47FE340930903BA
:1016700050930A0360930B0370930C03909304033D
:1016800080930303B093EE02A093ED02F093F00277
:10169000E093EF029093F2028093F1020093F5023F
:1016A0001093F6022093F7023093F8024093F90268
:1016B0005093FA026093FB027093FC021092F402C2
:1016C0001092F3020FE311E01093E9020093E80295
:1016D00085E00E94AF0685E090E09093EC02809355
:1016E000EB021093E4020093E30287E00E94AF064E
:1016F00087E090E09093E7028093E6021093DF0288
:101700000093DE0286E00E94AF0686E090E09093B0
:10171000E2028093E1021092A5021092A4024AE034
:1017200057ED63EA7CE34093A6025093A7026093CF
:10173000A8027093A90280E090E0A8ECB1E4809345
:10174000AA029093AB02A093AC02B093AD02E091D9
:10175000C802F091C9028093B4029093B502A0939D
:10176000B602B093B7028093B8029093B902A093E7
:10177000BA02B093BB024093BC025093BD02609387
:10178000BE027093BF02F093AF02E093AE020081FD
:101790001181228133810093B0021093B102209312
:1017A000B2023093B3028093C0029093C102A0931F
:1017B000C202B093C3021092C4021092C5021092EA
:1017C000C6021092C702C1E0C093CE02C093D702F6
:1017D0001092D8021092D90200E010E02CE832E416
:1017E0000093CA021093CB022093CC023093CD0217
:1017F000E4ECF2E0F093C902E093C80210926B02AD
:1018000010926A0240936C0250936D0260936E02D4
:1018100070936F028093700290937102A093720292
:10182000B0937302E0918E02F0918F0280937A025E
:1018300090937B02A0937C02B0937D0280937E0202
:1018400090937F02A0938002B09381024093820222
:10185000509383026093840270938502F093750223
:10186000E0937402C080D180E280F380C09276025F
:10187000D0927702E0927802F09279028093860209
:1018800090938702A0938802B093890210928A02F3
:1018900010928B0210928C0210928D02C0939402CF
:1018A000C0939D0210929E0210929F02009390029C
:1018B000109391022093920230939302EAE8F2E0AF
:1018C000F0938F02E0938E02109231021092300258
:1018D0004093320250933302609334027093350286
:1018E0008093360290933702A0933802B093390266
:1018F000E0915402F091550280934002909341028E
:10190000A0934202B0934302809344029093450215
:10191000A0934602B0934702409348025093490275
:1019200060934A0270934B02F0933B02E0933A02B9
:10193000408151816281738140933C0250933D020A
:1019400060933E0270933F0280934C0290934D024D
:10195000A0934E02B0934F02109250021092510287
:101960001092520210925302C0935A02C093630223
:10197000109264021092650200935602109357026F
:10198000209358023093590280E592E090935502DB
:101990008093540280911903811112C082E390E078
:1019A00090932C0280932B020E945806609327028A
:1019B000709328028093290290932A02C0931903FE
:1019C0008DE292E090932F0280932E02CF911F918F
:1019D0000F91FF90EF90DF90CF9008950E94300D0F
:1019E00008F481E00895E89409C097FB3EF49095CF
:1019F0008095709561957F4F8F4F9F4F9923A9F0E8
:101A0000F92F96E9BB279395F69587957795679576
:101A1000B795F111F8CFFAF4BB0F11F460FF1BC0BA
:101A20006F5F7F4F8F4F9F4F16C0882311F096E94D
:101A300011C0772321F09EE8872F762F05C06623FB
:101A400071F096E8862F70E060E02AF09A95660FB4
:101A5000771F881FDAF7880F9695879597F908956D
:101A6000990F0008550FAA0BE0E8FEEF16161706AF
:101A7000E807F907C0F012161306E407F50798F017
:101A8000621B730B840B950B39F40A2661F0232B30
:101A9000242B252B21F408950A2609F4A140A695AC
:101AA0008FEF811D811D08950E94670D0C94D80D44
:101AB0000E94CA0D38F00E94D10D20F0952311F03C
:101AC0000C94C10D0C94C70D11240C940C0E0E94A3
:101AD000E90D70F3959FC1F3950F50E0551F629F7C
:101AE000F001729FBB27F00DB11D639FAA27F00D77
:101AF000B11DAA1F649F6627B00DA11D661F829F9E
:101B00002227B00DA11D621F739FB00DA11D621F82
:101B1000839FA00D611D221F749F3327A00D611D9F
:101B2000231F849F600D211D822F762F6A2F112481
:101B30009F5750409AF0F1F088234AF0EE0FFF1FB4
:101B4000BB1F661F771F881F91505040A9F79E3F0B
:101B5000510580F00C94C10D0C940C0E5F3FE4F322
:101B6000983ED4F3869577956795B795F795E79561
:101B70009F5FC1F7FE2B880F911D9695879597F96A
:101B8000089597F99F6780E870E060E008959FEFFF
:101B900080EC089500240A94161617061806090604
:101BA000089500240A9412161306140605060895D3
:101BB000092E0394000C11F4882352F0BB0F40F45B
:101BC000BF2B11F460FF04C06F5F7F4F8F4F9F4F9B
:101BD000089557FD9058440F551F59F05F3F71F01D
:101BE0004795880F97FB991F61F09F3F79F0879584
:101BF0000895121613061406551FF2CF4695F1DF0D
:101C000008C0161617061806991FF1CF869571059C
:101C1000610508940895E894BB2766277727CB01D0
:101C200097F908955058BB27AA270E942A0E0C94B2
:101C3000D80D0E94CA0D38F00E94D10D20F039F461
:101C40009F3F19F426F40C94C70D0EF4E095E7FBC2
:101C50000C94C10DE92F0E94E90D58F3BA176207E1
:101C600073078407950720F079F4A6F50C940B0E02
:101C70000EF4E0950B2EBA2FA02D0B01B9019001A7
:101C80000C01CA01A0011124FF27591B99F0593FEB
:101C900050F4503E68F11A16F040A22F232F342F33
:101CA0004427585FF3CF469537952795A795F04081
:101CB0005395C9F77EF41F16BA0B620B730B840B96
:101CC000BAF09150A1F0FF0FBB1F661F771F881F4E
:101CD000C2F70EC0BA0F621F731F841F48F48795A6
:101CE00077956795B795F7959E3F08F0B0CF939598
:101CF000880F08F09927EE0F9795879508950E9411
:101D0000930E0C94D80D0E94D10D58F00E94CA0D6C
:101D100040F029F45F3F29F00C94C10D51110C944F
:101D20000C0E0C94C70D0E94E90D68F39923B1F3D2
:101D3000552391F3951B550BBB27AA2762177307F1
:101D4000840738F09F5F5F4F220F331F441FAA1F85
:101D5000A9F335D00E2E3AF0E0E832D09150504041
:101D6000E695001CCAF72BD0FE2F29D0660F771FEF
:101D7000881FBB1F261737074807AB07B0E809F0D5
:101D8000BB0B802DBF01FF2793585F4F3AF09E3F5A
:101D9000510578F00C94C10D0C940C0E5F3FE4F3E8
:101DA000983ED4F3869577956795B795F7959F5F9D
:101DB000C9F7880F911D9695879597F90895E1E0E9
:101DC000660F771F881FBB1F621773078407BA0748
:101DD00020F0621B730B840BBA0BEE1F88F7E095A3
:101DE00008950E94300D08F48FEF0895EE0FFF1F45
:101DF0000590F491E02D0994CF93DF938230910503
:101E000010F482E090E0E0912303F091240320E0BD
:101E100030E0C0E0D0E0309711F1408151814817A7
:101E20005907C0F04817590761F4828193812097C0
:101E300019F09B838A832BC0909324038093230300
:101E400026C02115310519F04217530718F49A01DD
:101E5000BE01DF01EF010280F381E02DDCCF21150F
:101E6000310509F1281B390B2430310590F4129605
:101E70008D919C9113976115710521F0FB0193835E
:101E8000828304C09093240380932303FD01329640
:101E900044C0FD01E20FF31F819391932250310959
:101EA0002D933C933AC02091210330912203232BA0
:101EB00041F420910E0130910F01309322032093C1
:101EC000210320910C0130910D012115310541F4C0
:101ED0002DB73EB74091100150911101241B350BD5
:101EE000E0912103F0912203E217F307A0F42E1BE7
:101EF0003F0B2817390778F0AC014E5F5F4F24176E
:101F0000350748F04E0F5F1F509322034093210383
:101F10008193919302C0E0E0F0E0CF01DF91CF9197
:101F200008950F931F93CF93DF93009709F48CC00C
:101F3000FC01329713821282009123031091240333
:101F40000115110581F420813181820F931F2091A9
:101F50002103309122032817390779F5F0932203E2
:101F6000E093210371C0D80140E050E0AE17BF07F5
:101F700050F412962D913C911397AD012115310526
:101F800009F1D901F3CF9D01DA0133832283608106
:101F90007181860F971F8217930769F4EC012881DE
:101FA0003981260F371F2E5F3F4F318320838A816F
:101FB0009B8193838283452B29F4F0932403E09340
:101FC000230342C01396FC93EE931297ED014991BF
:101FD00059919E01240F351FE217F30771F4808198
:101FE0009181840F951F029611969C938E93828106
:101FF000938113969C938E931297E0E0F0E0D801C2
:1020000012968D919C911397009719F0F8018C010D
:10201000F6CF8D919C9198012E5F3F4F820F931FB9
:1020200020912103309122032817390769F4309752
:1020300029F4109224031092230302C01382128207
:102040001093220300932103DF91CF911F910F91F1
:10205000089581E090E0F8940C942E1010E0C3EE07
:10206000D0E004C0FE010E94F60E2196C43ED107C6
:06207000C9F7F894FFCF50
:10207600FFFFFFFF00E10000000000000000250355
:10208600800000C18081000000000000009B015517
:1020960003DA03B101BC010204DE03000000000004
:1020A600000000200420049F029C0200000000AEF5
:1020B600062604130303039F029C0200000000FC93
:1020C60002A202564D4450565F317C315F564D4454
:0620D60050560D0A000047
:00000001FF
