:100000000C94EA000C9412010C9412010C9412014D
:100010000C9412010C9412010C9412010C94120114
:100020000C9412010C9412010C94E4040C945605E7
:100030000C9412010C9412010C9412010C941201F4
:100040000C9412010C9412010C9412010C941201E4
:100050000C9412010C9412010C9412010C9486075A
:100060000C9412010C9412010C9412010C941201C4
:100070000C9412010C9412010C9412010C941201B4
:100080000C9412010C9412010C9412010C941201A4
:100090000C9412010C9412010C9412010C94120194
:1000A0000C9412010C9412010C9412012E033103D2
:1000B0002003240328035203520352033503390358
:1000C0003D034303470352034D0300000000230098
:1000D000260029002C002F00070605040100080A4D
:1000E0000B0C0D090000000200090F0000030401C1
:1000F000000C0000000000000000000000000000F4
:10010000000000080B0002020201000904000001C7
:10011000020200000524001001052401010104244D
:1001200002060524060001070581031000400904AA
:100130000100020A00000007050202400000070556
:1001400083024000000403090412010002EF0201CF
:100150004041233680000101020301417264756948
:100160006E6F204C4C430041726475696E6F204C79
:10017000656F6E6172646F0000000000250028004A
:100180002B002E00310000000000240027002A0070
:100190002D003000040404040403040502020202DA
:1001A0000403020202020606060606060404020210
:1001B00002040404080201104080401020408040E6
:1001C00080080204018040201002011080102040AD
:1001D0004020150811241FBECFEFDAE0DEBFCDBFEF
:1001E00011E0A0E0B1E0EEE7FAE102C005900D9267
:1001F000A633B107D9F722E0A6E3B1E001C01D9212
:10020000A333B207E1F710E0CAEED0E004C02197B3
:10021000FE010E94320DC93ED107C9F70E94E108D4
:100220000C943D0D0C94000090E0FC01ED54FE4F49
:100230002491FC01EC56FE4F8491882399F090E0C4
:10024000880F991FFC01EA57FE4FA591B491FC015C
:10025000E858FE4F859194918FB7F894EC91E22B7A
:10026000EC938FBF0895FC0180915801811103C068
:100270008FEF9FEF08959FB7F89482E08093E90095
:100280002091F20030E01216130614F421E030E061
:100290002115310559F0289884E680935701809103
:1002A000F10080838091F200882319F09FBFC9017B
:1002B00008958BE68093E800F9CF2FB7F89483E098
:1002C0008093E9009091E800892F807295FF04C027
:1002D0009091F20080E4891B2FBF0895CF92DF92A6
:1002E000EF92FF920F931F93CF93DF936C017A01EC
:1002F0008B01C0E0D0E0CE15DF0589F0D8016D910B
:100300008D01D601ED91FC910190F081E02DC601A7
:100310000995892B11F47E0102C02196ECCFC7010B
:10032000DF91CF911F910F91FF90EF90DF90CF90D1
:10033000089580914F0181110DC082E080934B019F
:1003400084E080934C0110924E0110924D0181E0A7
:1003500080934F018BE491E00895CF93DF931F9238
:10036000CDB7DEB76983DC01ED91FC910280F381AA
:10037000E02D41E050E0BE016F5F7F4F09950F9087
:10038000DF91CF91089583E08093E9008091F2009E
:10039000882319F08AE38093E80008950E945D01A4
:1003A00090E00895CF93DF931F92CDB7DEB7FC01A5
:1003B0008485958597FD05C02FEF3FEF358724870E
:1003C0000BC0CE0101960E943301019719F4898177
:1003D00090E002C08FEF9FEF0F90DF91CF910895D3
:1003E0000F931F93CF93DF931F92CDB7DEB78C018E
:1003F000FC018485958597FF0EC0CE0101960E9471
:100400003301019719F4298130E002C02FEF3FEF4B
:10041000F80135872487F801848595850F90DF9151
:10042000CF911F910F910895FC018485958597FDCB
:100430000BC09FB7F89482E08093E9008091F200AE
:100440009FBF90E0019608959FB7F89482E0809353
:10045000E9008091F2009FBF90E00895089580E048
:1004600090E008954091450150914601209143014B
:100470003091440142175307B4F49091E80095700D
:10048000E1F39091E80092FD19C08093F100809112
:1004900045019091460101968F739927892B19F494
:1004A0008EEF8093E800809145019091460101967E
:1004B000909346018093450181E0089580E008957E
:1004C000CF92DF92EF92FF920F931F93CF93DF9320
:1004D0001F92CDB7DEB7182F062FE42E862F880F78
:1004E0008E5F99830E94320283E00E943202F12ED5
:1004F000C12E9981D92E8C2D8F19801798F4F60171
:10050000E7FE02C0849101C080810E943202182F50
:1005100080E00E9432028123FFEFCF1ADF0A8111AF
:10052000EACF01C081E00F90DF91CF911F910F9131
:10053000FF90EF90DF90CF900895DF92EF92FF92BF
:100540000F931F93CF93DF93D82E8A017B01E40E84
:10055000F51EEB01CE15DF0571F0D7FE03C0FE01DD
:10056000849101C088810E94320221968111F2CFCC
:100570008FEF9FEF01C0C801DF91CF911F910F91C5
:10058000FF90EF90DF9008950F931F93CF93DF9329
:100590001F92CDB7DEB782E0898342E450E063E08A
:1005A00071E080E80E949D020E949901DC01129690
:1005B0000D911C9113970115110569F0D801ED916A
:1005C000FC910280F381E02DBE016F5F7F4FC80177
:1005D000099597FF07C089810F90DF91CF911F91F7
:1005E0000F910895F80100851185E5CF615030F035
:1005F0002091F100FC0120830196F8CF289884E631
:10060000809357010895362F90E0FC01EC51FF4F85
:100610004491FC01ED54FE4F2491FC01EC56FE4F39
:100620008491882309F451C04423E1F150E0FA0198
:100630003197EF30F105B0F5EA5AFF4F0C94320DC7
:10064000909180009F7707C0909180009F7D03C0AC
:1006500090918000977F9093800024C094B59F77FD
:1006600002C094B59F7D94BD1DC0909190009F776E
:1006700007C0909190009F7D03C090919000977F5C
:10068000909390000FC09091C0009F7703C090910D
:10069000C0009F7D9093C00005C09091C200977FDD
:1006A0009093C200E82FF0E0EE0FFF1FE858FE4FD6
:1006B000A591B4918FB7F894EC91311103C02095B6
:1006C0002E2301C02E2B2C938FBF08953FB7F89493
:1006D00080913B0190913C01A0913D01B0913E0180
:1006E00026B5A89B05C02F3F19F00196A11DB11D8D
:1006F0003FBFBA2FA92F982F8827820F911DA11DC8
:10070000B11DBC01CD0142E0660F771F881F991F04
:100710004A95D1F70895CF92DF92EF92FF920E940F
:1007200066036B017C010E946603DC01CB018C191E
:100730009D09AE09BF09883E9340A105B10598F314
:10074000FF90EF90DF90CF9008958F929F92AF929D
:10075000BF92CF92DF92EF92FF920F931F93CF93AE
:10076000DF936C015B017A0180910B01882309F40E
:1007700056C080915801882309F451C080914A01E4
:1007800080FF05C08091E00082608093E000E70177
:1007900010E00AEF83E0882E9AE3992E2097B1F1BA
:1007A0000E945D01811105C00150C9F10E948B03B7
:1007B000F5CF282F30E0C217D3070CF48C2F4FB79A
:1007C000F8948092E9009091E80095FF1DC0282FD1
:1007D00030E0C21BD30BF501982F915020F081918E
:1007E0008093F100FACFA20EB31E112319F090925C
:1007F000E80009C08091E80085FD06C09092E800FD
:1008000011E0209709F010E04FBFC8CF1111C8CFF9
:100810005D9884E6809349011E141F0444F081E032
:1008200090E0F6019383828380E090E001C0C701ED
:10083000DF91CF911F910F91FF90EF90DF90CF90BC
:10084000BF90AF909F908F900895CF93DF93EC016E
:10085000EC81E23108F0E251F0E0E852FF4FE49120
:1008600080917B00E3FB222720F930E095E0220F06
:10087000331F9A95E1F78F7D282B20937B00E7703B
:10088000E064E0937C0080917A00806480937A0039
:1008900080917A0086FDFCCF60917800809179008C
:1008A00070E0782B072E000C880B990B0E94100C1F
:1008B0002A813B812115310541F02130310561F458
:1008C0002A853B854C855D8504C02E813F81488506
:1008D00059850E94660B04C060E070E080E89FEBE1
:1008E000DF91CF910895DC01ED91FC910280F381BD
:1008F000E02D09940E94380D0F931F93CF93DF933F
:10090000EC0161E088890E9403036A817B818C810C
:100910009D810E94DF0B6230710548F0660F771FE2
:10092000660F771F65507109CB010197F1F760E001
:100930008A890E9403032A893B893327F901ED54F0
:10094000FE4F6491F901EC56FE4FE491F0E0EE0F9A
:10095000FF1FE653FF4F8591949100E412E42FE0CE
:1009600030E0462F0E94D007611571058105910581
:1009700049F0DC01CB010196A11DB11DBC01CD01E7
:100980009F7003C060E070E0CB010E940E0C2E85CA
:100990003F852115310541F02130310561F42E816B
:1009A0003F814885598504C02A853B854C855D85F6
:1009B0000E94660B04C060E070E080E89FEBDF916E
:1009C000CF911F910F9108951F920F920FB60F9222
:1009D00011248F939F938091E1009091E100937F88
:1009E0009093E10083FF0FC01092E90091E0909393
:1009F000EB001092EC0092E39093ED0010925801FE
:100A000098E09093F00082FF20C093E09093E9007B
:100A10009091F200992319F09AE39093E800909155
:100A20004901992339F090914901915090934901DE
:100A3000992389F190915701992339F090915701A9
:100A4000915090935701992341F184FF10C08091F8
:100A5000E2008E7E81608093E2008091E1008F7ED3
:100A60008093E10080914A018E7E806111C080FFF9
:100A700016C08091E2008E7E80618093E2008091BA
:100A8000E1008E7E8093E10080914A018E7E81603C
:100A900080934A0104C05D9ACDCF289AD6CF9F910A
:100AA0008F910F900FBE0F901F9018951F920F926D
:100AB0000FB60F921124CF92DF92EF92FF920F9315
:100AC0001F932F933F934F935F936F937F938F93D6
:100AD0009F93AF93BF93EF93FF93CF93DF93CDB7E4
:100AE000DEB76C97DEBFCDBF1092E9008091E800C1
:100AF00083FFEDC168E0CE0145960E94F60282EFC9
:100B00008093E8008D8987FF05C09091E80090FFF1
:100B1000FCCF03C09EEF9093E800982F907609F0E9
:100B2000C6C09E892F89188D91110CC0803829F478
:100B3000809148018093F10002C01092F100109260
:100B4000F10048C1422F50E0512B913051F48111F6
:100B500041C14130510509F03DC1809148018D7F6F
:100B60000BC0933061F4811135C14130510509F05A
:100B700031C1809148018260809348012BC195303A
:100B800041F48091E80080FFFCCF20682093E300CF
:100B900021C1963009F05FC0EB8CFC8C1092E9000B
:100BA0001092460110924501123091F510924401C5
:100BB000109243010E94C40299E0BE016F5F7F4F13
:100BC000DB01E92F1D92EA95E9F799831A8391E0F9
:100BD0009E8390EA98879AEF9987209145013091FA
:100BE0004601275F3F4F3C832B838D831092E900A2
:100BF0001092460110924501F0924401E0924301A7
:100C000049E050E080E00E949D020E94C402E2C0E0
:100C1000F0924401E09243010E949901DC01129696
:100C2000ED90FC901397E114F10409F4C0C0D701D2
:100C3000ED91FC910480F581E02DBE016B5E7F4F4C
:100C4000C7010995009719F00CF0C4C0C7C0F7019F
:100C5000E084F184E8CF973009F4C0C0983021F4E3
:100C600081E08093F100B6C0993009F0B3C0837081
:100C700009F0B4C0EDE0F1E081E021E036E39081DD
:100C8000992361F08093E9002093EB009191909378
:100C9000EC003093ED008F5F873089F78EE780930B
:100CA000EA001092EA008F898093580193C08B8DDF
:100CB0009C8D1092E900109246011092450190938C
:100CC000440180934301898D811156C08E899D898D
:100CD000913A59F4813209F081C047E050E064E074
:100CE00071E080E00E949D0275C0913209F076C0EB
:100CF000833289F4888D90E0982F88272F89822B62
:100D0000A0E0B0E08093000190930101A093020164
:100D1000B09303015FC0803269F48091E80082FFE4
:100D2000FCCF67E084E091E00E94F6028BEF8093B5
:100D3000E80006C0823209F04DC08F8980930B0114
:100D400080914701882319F0EEEFFAE002C0E0E05D
:100D5000F8E08091040190910501A0910601B09105
:100D60000701803B9440A105B10509F07BC080914B
:100D70000B0180FF93C076C00E949901DC0112969E
:100D80000D911C9113970115110541F1D801ED91B9
:100D9000FC910190F081E02DBE016B5E7F4FC80198
:100DA0000995811117C0F80100851185ECCF11302C
:100DB00009F44EC0133091F48F89882309F445C09B
:100DC000823081F440E860E187E691E00E946002B1
:100DD000882321F08EEF8093E80079C081E2809330
:100DE000EB0075C0813029F440E86BE08BE591E0C1
:100DF000EDCF833099F70E949901DC011296ED90B6
:100E0000FC9013978E010F5F1F4F6801E114F104EE
:100E100079F0D701ED91FC910680F781E02DB801C2
:100E2000C7010995080F111DF701E084F184EECF89
:100E3000D8011C92F60101900020E9F73197BF011B
:100E40006C197D0940E0C601C1CF65E471E002C0C4
:100E500069E471E06115710509F2FB01449150E00C
:100E600080E840CF0FB6F894A89580916000886123
:100E700080936000109260000FBEA895EE3F2AE0BC
:100E8000F20739F08091FE0A9091FF0A91838083E6
:100E9000A1CF1092FF0A1092FE0A9CCFEE3F8AE08B
:100EA000F80731F0808191819093FF0A8093FE0AC8
:100EB00087E797E7918380839BE088E10FB6F894FA
:100EC000A895809360000FBE9093600083CF6C96CE
:100ED0000FB6F894DEBF0FBECDBFDF91CF91FF916B
:100EE000EF91BF91AF919F918F917F916F915F91A2
:100EF0004F913F912F911F910F91FF90EF90DF90B5
:100F0000CF900F900FBE0F901F9018951F920F92C9
:100F10000FB60F9211242F933F938F939F93AF930C
:100F2000BF938091370190913801A0913901B09120
:100F30003A013091360123E0230F2D3720F401963A
:100F4000A11DB11D05C026E8230F0296A11DB11DEC
:100F5000209336018093370190933801A093390193
:100F6000B0933A0180913B0190913C01A0913D01E9
:100F7000B0913E010196A11DB11D80933B0190935C
:100F80003C01A0933D01B0933E01BF91AF919F9171
:100F90008F913F912F910F900FBE0F901F9018953A
:100FA000CF92DF92EF92FF920F931F93E82FF92FCA
:100FB00005C0015011092109310961F19081962381
:100FC0009417B9F305C0015011092109310911F134
:100FD000908196239413F7CFC12CD12CE12CF12CC6
:100FE0000AC08FEFC81AD80AE80AF80A0C151D05BE
:100FF0002E053F0579F080818623841791F36C2DAF
:101000007D2D8E2D9F2D1F910F91FF90EF90DF90E2
:10101000CF90089560E070E080E090E01F910F9124
:10102000FF90EF90DF90CF9008958F929F92AF92B4
:10103000BF92CF92DF92EF92FF92CF93DF93E9E5D9
:10104000F1E01382128288EE93E0A0E0B0E08483A6
:101050009583A683B78387E191E0918380838FEFA7
:101060009FEF95878487E9EAF1E080E090E0A0E0D7
:10107000B0E484839583A683B78321E0208711861B
:10108000E3EBF1E061E371E07183608341E050E004
:101090005383428386839783A087B18736E2C32E2A
:1010A00033E9D32E39E4E32E3FE3F32EC286D38611
:1010B000E486F586E1ECF1E0C9E2D1E0D183C083BA
:1010C000812C912CC0E2AC2EC1E4BC2E8282938292
:1010D000A482B582812C912CD4E1AD2ED3E4BD2E17
:1010E00086829782A086B186812C912C38E6A32E29
:1010F00032E4B32E82869386A486B586178616863A
:10110000E5E2F2E0718360835383428386839783B1
:10111000A087B187C286D386E486F586E7E1F2E050
:10112000718360835383428386839783A087B187CB
:10113000C286D386E486F586EDE0F2E0848395836B
:10114000A683B78320871186E3E0F2E0848395834A
:10115000A683B78320871186E9EFF1E08483958326
:10116000A683B78320871186EDEEF1E01482158205
:101170001682178280E090E0A0E8BFE38087918725
:10118000A287B387E1EEF1E01482158216821782FE
:1011900080879187A287B387E5EDF1E014821582FD
:1011A0001682178280879187A287B387DF91CF91BC
:1011B000FF90EF90DF90CF90BF90AF909F908F9077
:1011C0000895CF93DF93CDB7DEB728970FB6F89485
:1011D000DEBF0FBECDBF789484B5826084BD84B578
:1011E000816084BD85B5826085BD85B5816085BD22
:1011F00080916E00816080936E00109281008091DA
:101200008100826080938100809181008160809361
:1012100081008091800081608093800080919100A6
:101220008260809391008091910081608093910011
:10123000809190008160809390008091C1008460D3
:101240008093C1008091C10082608093C100809131
:10125000C10081608093C1008091C3008160809350
:10126000C3008091C00082608093C0008091C20062
:1012700081608093C20080917A00846080937A00BC
:1012800080917A00826080937A0080917A008160F8
:1012900080937A0080917A00806880937A0010921F
:1012A00058011092480110924A018091D700816044
:1012B0008093D70080EA8093D80089B5806189BD8A
:1012C00089B5826089BD09B400FEFDCF0E948B0301
:1012D0008091D8008F7C80618093D8008091E0005D
:1012E000807F8093E0008091E1008E7E8093E1001A
:1012F0008DE08093E200559A209AEEEFFFE785910A
:1013000094918B3F9C4D19F481E08093470181E0DB
:1013100090E090932A028093290210921C0210926E
:101320001B0280E090E0ACE8B2E480930D02909361
:101330000E02A0930F02B0931002809303029093C9
:101340000402A0930502B0930602109215021092B7
:101350000B0285E00E94140185E090E09093420129
:101360008093410187E00E94140187E090E0909310
:10137000400180933F0100E010E085E292E00E948E
:10138000730469837A838B839C838090F5019090AA
:10139000F601A090F701B090F80120E030E040E8BD
:1013A0005FE3C501B4010E94F50A9B01AC01C501D0
:1013B000B4010E94660B2B013C01C090F101D0905A
:1013C000F201E090F301F090F401A7019601698128
:1013D0007A818B819C810E94F40A9B01AC01C3013C
:1013E000B2010E94C50C9B01AC01C701B6010E946D
:1013F000F50A69837A838B839C836093F1017093F0
:10140000F2018093F3019093F401A301920160E053
:1014100070E080E89FE30E94F40AA50194010E9415
:10142000C50C6093F5017093F6018093F7019093DA
:10143000F80187E192E00E9473046D837E838F83BD
:101440009887C090E901D090EA01E090EB01F0901C
:10145000EC0120E030E040E85FE3C701B6010E9404
:10146000F50A9B01AC01C701B6010E94660B2B0176
:101470003C018090E5019090E601A090E701B090DA
:10148000E801A50194016D817E818F8198850E947C
:10149000F40A9B01AC01C301B2010E94C50C9B017F
:1014A000AC01C501B4010E94F50A4B015C016093D7
:1014B000E5017093E6018093E7019093E801A301B1
:1014C000920160E070E080E89FE30E94F40AA701C7
:1014D00096010E94C50C6093E9017093EA01809324
:1014E000EB019093EC01C501B4010E94D80B4B01B4
:1014F0005C0169817A818B819C810E94D80B072EC7
:10150000000C880B990B0E94100C6B017C01409021
:101510000D0250900E0260900F0270901002A30115
:1015200092010E94C00C18162CF480911502882399
:1015300071F015C0A3019201C701B6010E94610BB1
:1015400087FF0FC08091150281110BC008C0A30155
:101550009201C701B6010E94610B87FF02C061E0E2
:1015600001C060E0809141010E940303B401990C25
:10157000880B990B0E94100C6B017C0180900D026E
:1015800090900E02A0900F02B0901002A50194015D
:101590000E94C00C18162CF480911502882371F05B
:1015A00015C0A5019401C701B6010E94610B87FF18
:1015B0000FC08091150281110BC008C0A5019401D4
:1015C000C701B6010E94610B87FF02C061E001C044
:1015D00060E080913F010E9403030115110509F4A9
:1015E000CCCE0E940000C9CE5058BB27AA270E942B
:1015F0000C0B0C94860C0E94780C38F00E947F0C27
:1016000020F039F49F3F19F426F40C94750C0EF475
:10161000E095E7FB0C946F0CE92F0E94970C58F3B0
:10162000BA17620773078407950720F079F4A6F5C7
:101630000C94B90C0EF4E0950B2EBA2FA02D0B01D3
:10164000B90190010C01CA01A0011124FF27591B07
:1016500099F0593F50F4503E68F11A16F040A22F0D
:10166000232F342F4427585FF3CF4695379527957E
:10167000A795F0405395C9F77EF41F16BA0B620B7D
:10168000730B840BBAF09150A1F0FF0FBB1F661FC4
:10169000771F881FC2F70EC0BA0F621F731F841F07
:1016A00048F4879577956795B795F7959E3F08F02D
:1016B000B0CF9395880F08F09927EE0F97958795EF
:1016C00008950E944B0C08F481E008950E947A0B63
:1016D0000C94860C0E947F0C58F00E94780C40F00D
:1016E00029F45F3F29F00C946F0C51110C94BA0C43
:1016F0000C94750C0E94970C68F39923B1F3552351
:1017000091F3951B550BBB27AA2762177307840714
:1017100038F09F5F5F4F220F331F441FAA1FA9F3AA
:1017200035D00E2E3AF0E0E832D091505040E69598
:10173000001CCAF72BD0FE2F29D0660F771F881FF9
:10174000BB1F261737074807AB07B0E809F0BB0BEC
:10175000802DBF01FF2793585F4F3AF09E3F510500
:1017600078F00C946F0C0C94BA0C5F3FE4F3983E45
:10177000D4F3869577956795B795F7959F5FC9F7E9
:10178000880F911D9695879597F90895E1E0660F6A
:10179000771F881FBB1F621773078407BA0720F0E3
:1017A000621B730B840BBA0BEE1F88F7E09508954C
:1017B0000E94DF0B6894B1110C94BA0C08950E943A
:1017C0009F0C88F09F5798F0B92F9927B751B0F028
:1017D000E1F0660F771F881F991F1AF0BA95C9F7B5
:1017E00014C0B13091F00E94B90CB1E008950C948E
:1017F000B90C672F782F8827B85F39F0B93FCCF341
:10180000869577956795B395D9F73EF49095809531
:10181000709561957F4F8F4F9F4F0895E89409C051
:1018200097FB3EF490958095709561957F4F8F4F13
:101830009F4F9923A9F0F92F96E9BB279395F69529
:10184000879577956795B795F111F8CFFAF4BB0FA7
:1018500011F460FF1BC06F5F7F4F8F4F9F4F16C00B
:10186000882311F096E911C0772321F09EE8872F95
:10187000762F05C0662371F096E8862F70E060E051
:101880002AF09A95660F771F881FDAF7880F9695CA
:10189000879597F90895990F0008550FAA0BE0E86E
:1018A000FEEF16161706E807F907C0F01216130622
:1018B000E407F50798F0621B730B840B950B39F462
:1018C0000A2661F0232B242B252B21F408950A26C8
:1018D00009F4A140A6958FEF811D811D089597F908
:1018E0009F6780E870E060E008959FEF80EC0895C6
:1018F00000240A94161617061806090608950024EF
:101900000A9412161306140605060895092E039468
:10191000000C11F4882352F0BB0F40F4BF2B11F4DC
:1019200060FF04C06F5F7F4F8F4F9F4F089557FD3B
:101930009058440F551F59F05F3F71F04795880F3D
:1019400097FB991F61F09F3F79F0879508951216D4
:1019500013061406551FF2CF4695F1DF08C0161680
:1019600017061806991FF1CF869571056105089431
:101970000895E894BB2766277727CB0197F9089548
:101980000E944B0C08F48FEF08950E94D80C0C9421
:10199000860C0E94780C38F00E947F0C20F0952372
:1019A00011F00C946F0C0C94750C11240C94BA0C5F
:1019B0000E94970C70F3959FC1F3950F50E0551F4F
:1019C000629FF001729FBB27F00DB11D639FAA2794
:1019D000F00DB11DAA1F649F6627B00DA11D661FE3
:1019E000829F2227B00DA11D621F739FB00DA11D04
:1019F000621F839FA00D611D221F749F3327A00DBE
:101A0000611D231F849F600D211D822F762F6A2F59
:101A100011249F5750409AF0F1F088234AF0EE0FBE
:101A2000FF1FBB1F661F771F881F91505040A9F7EB
:101A30009E3F510580F00C946F0C0C94BA0C5F3FE4
:101A4000E4F3983ED4F3869577956795B795F79527
:101A5000E7959F5FC1F7FE2B880F911D969587959F
:101A600097F90895EE0FFF1F0590F491E02D09946A
:0E1A700081E090E0F8940C943D0DF894FFCFC7
:101A7E00FFFFFFFF00E100000000000000C18081B9
:101A8E0000000000000000AD01A503CE01C301144B
:101A9E0002D201F0010000000073047C040000007B
:061AAE0000730425040092
:00000001FF
