:100000000C94EB000C9413010C9413010C94130149
:100010000C9413010C9413010C9413010C94130110
:100020000C9413010C9413010C941B050C948D0576
:100030000C9413010C9413010C9413010C941301F0
:100040000C9413010C9413010C9413010C941301E0
:100050000C9413010C9413010C9413010C94BD0720
:100060000C9413010C9413010C9413010C941301C0
:100070000C9413010C9413010C9413010C941301B0
:100080000C9413010C9413010C9413010C941301A0
:100090000C9413010C9413010C9413010C94130190
:1000A0000C9413010C9413010C941301100313030B
:1000B000020306030A0334033403340317031B0348
:1000C0001F032503290334032F030000000023002E
:1000D000260029002C002F00070605040100080A4D
:1000E0000B0C0D0900000000240027002A002D0041
:1000F000300000000000250028002B002E003100F9
:1001000004040404040304050202020204030202BC
:10011000020206060606060604040202020404049D
:1001200008020110408040102040804080080204F6
:10013000018040201002011080102040402000006B
:10014000000200090F0000030401000C0000000081
:1001500000000000000000000000000000080B008C
:10016000020202010009040000010202000005244D
:1001700000100105240101010424020605240600E3
:10018000010705810310004009040100020A000074
:10019000000705020240000007058302400000043A
:1001A00003090412010002EF0201404123368000DE
:1001B000010102030141726475696E6F204C4C436A
:1001C0000041726475696E6F204C656F6E61726478
:1001D0006F004C08C00A11241FBECFEFDAE0DEBF6B
:1001E000CDBF11E0A0E0B1E0E8EEFAE102C0059079
:1001F0000D92A434B107D9F722E0A4E4B1E001C024
:100200001D92A036B207E1F710E0CAEED0E004C0BC
:100210002197FE010E942F0CC93ED107C9F70E9409
:10022000AA090C94670D0C940000FC0180916201F6
:10023000811103C08FEF9FEF08959FB7F89482E07C
:100240008093E9002091F20030E01216130614F4B6
:1002500021E030E02115310559F0289884E680939B
:1002600061018091F10080838091F200882319F070
:100270009FBFC90108958BE68093E800F9CF2FB79F
:10028000F89483E08093E9009091E800892F8072D0
:1002900095FF04C09091F20080E4891B2FBF089560
:1002A0008091590181110DC082E08093550184E055
:1002B00080935601109258011092570181E080936B
:1002C000590185E591E0089540914F015091500109
:1002D00020914D0130914E0142175307B4F4909193
:1002E000E8009570E1F39091E80092FD19C08093C9
:1002F000F10080914F019091500101968F739927E1
:10030000892B19F48EEF8093E80080914F01909132
:10031000500101969093500180934F0181E0089520
:1003200080E00895CF92DF92EF92FF920F931F9398
:10033000CF93DF931F92CDB7DEB7182F062FE42E91
:10034000862F880F8E5F99830E94640183E00E944C
:100350006401F12EC12E9981D92E8C2D8F19801711
:1003600098F4F601E7FE02C0849101C080810E94EA
:100370006401182F80E00E9464018123FFEFCF1AEF
:10038000DF0A8111EACF01C081E00F90DF91CF91A8
:100390001F910F91FF90EF90DF90CF900895DF9223
:1003A000EF92FF920F931F93CF93DF93D82E8A0182
:1003B0007B01E40EF51EEB01CE15DF0571F0D7FED3
:1003C00003C0FE01849101C088810E9464012196CE
:1003D0008111F2CF8FEF9FEF01C0C801DF91CF9164
:1003E0001F910F91FF90EF90DF9008950F931F934F
:1003F000CF93DF931F92CDB7DEB782E0898342E4CB
:1004000050E06DE571E080E80E94CF010E9450014C
:10041000DC0112960D911C9113970115110569F0DD
:10042000D801ED91FC910280F381E02DBE016F5F58
:100430007F4FC801099597FF07C089810F90DF9111
:10044000CF911F910F910895F80100851185E5CF97
:10045000615030F02091F100FC0120830196F8CF2B
:10046000289884E6809361010895CF92DF92EF92FD
:10047000FF920F931F93CF93DF936C017A018B014F
:10048000C0E0D0E0CE15DF0589F0D8016D918D0177
:10049000D601ED91FC910190F081E02DC601099506
:1004A000892B11F47E0102C02196ECCFC701DF91A8
:1004B000CF911F910F91FF90EF90DF90CF90089513
:1004C000CF93DF931F92CDB7DEB76983DC01ED9147
:1004D000FC910280F381E02D41E050E0BE016F5FAE
:1004E0007F4F09950F90DF91CF91089583E080931E
:1004F000E9008091F200882319F08AE38093E800F4
:1005000008950E943F0190E00895CF93DF931F92DA
:10051000CDB7DEB7FC018485958597FD05C02FEF2B
:100520003FEF358724870BC0CE0101960E9415014D
:10053000019719F4898190E002C08FEF9FEF0F902F
:10054000DF91CF9108950F931F93CF93DF931F9265
:10055000CDB7DEB78C01FC018485958597FF0EC071
:10056000CE0101960E941501019719F4298130E00E
:1005700002C02FEF3FEFF80135872487F80184850B
:1005800095850F90DF91CF911F910F910895FC01F8
:100590008485958597FD0BC09FB7F89482E0809382
:1005A000E9008091F2009FBF90E0019608959FB707
:1005B000F89482E08093E9008091F2009FBF90E080
:1005C0000895089580E090E00895362F90E0FC01B2
:1005D000E25CFE4F4491FC01E15EFE4F2491FC0180
:1005E000E050FF4F8491882309F451C04423E1F186
:1005F00050E0FA013197EF30F105B0F5EA5AFF4FBC
:100600000C942F0C909180009F7707C090918000F0
:100610009F7D03C090918000977F9093800024C0BD
:1006200094B59F7702C094B59F7D94BD1DC09091F5
:1006300090009F7707C0909190009F7D03C090919C
:100640009000977F909390000FC09091C0009F778B
:1006500003C09091C0009F7D9093C00005C0909111
:10066000C200977F9093C200E82FF0E0EE0FFF1FCB
:10067000EE50FF4FA591B4918FB7F894EC913111E2
:1006800003C020952E2301C02E2B2C938FBF0895DD
:10069000CF93DF9390E0FC01E15EFE4F2491FC01DB
:1006A000E050FF4F8491882361F190E0880F991FFB
:1006B000FC01EC51FF4FC591D491FC01EE50FF4F6E
:1006C000A591B491611109C09FB7F89488812095D4
:1006D00082238883EC912E230BC0623061F49FB794
:1006E000F8943881822F809583238883EC912E2B78
:1006F0002C939FBF06C08FB7F894E8812E2B2883D8
:100700008FBFDF91CF9108953FB7F8948091490151
:1007100090914A01A0914B01B0914C0126B5A89B44
:1007200005C02F3F19F00196A11DB11D3FBFBA2F83
:10073000A92F982F8827820F911DA11DB11DBC01E3
:10074000CD0142E0660F771F881F991F4A95D1F7A8
:100750000895CF92DF92EF92FF920E9484036B0183
:100760007C010E948403DC01CB018C199D09AE0938
:10077000BF09883E9340A105B10598F3FF90EF9023
:10078000DF90CF9008958F929F92AF92BF92CF92B9
:10079000DF92EF92FF920F931F93CF93DF936C0141
:1007A0005B017A0180910B01882309F456C0809186
:1007B0006201882309F451C08091530180FF05C074
:1007C0008091E00082608093E000E70110E00AEF92
:1007D00083E0882E9AE3992E2097B1F10E943F0181
:1007E000811105C00150C9F10E94A903F5CF282F3E
:1007F00030E0C217D3070CF48C2F4FB7F8948092D7
:10080000E9009091E80095FF1DC0282F30E0C21B41
:10081000D30BF501982F915020F081918093F10036
:10082000FACFA20EB31E112319F09092E80009C06E
:100830008091E80085FD06C09092E80011E02097C5
:1008400009F010E04FBFC8CF1111C8CF5D9884E602
:10085000809354011E141F0444F081E090E0F601DF
:100860009383828380E090E001C0C701DF91CF9144
:100870001F910F91FF90EF90DF90CF90BF90AF90BE
:100880009F908F900895CF93DF93EC01EE81E2313A
:1008900008F0E251F0E0E852FF4FE49180917B00D4
:1008A000E3FB222720F930E045E0220F331F4A9571
:1008B000E1F78F7D282B20937B00E770E064E093C5
:1008C0007C0080917A00806480937A0080917A0025
:1008D00086FDFCCF609178008091790070E0782BE4
:1008E000072E000C880B990B0E947A0BEA81FB8182
:1008F000E230F10538F0EE0FFF1FEE0FFF1F3597C6
:100900003197F1F72C813D812115310541F02130DE
:10091000310561F42C853D854E855F8504C02885B1
:1009200039854A855B850E94D70A04C060E070E083
:1009300080E89FEBDF91CF910895DC01ED91FC9170
:100940000280F381E02D0994FC01128260E0838132
:100950000C94E50221E0FC01228361E083810C9488
:10096000E5020E94620D0F931F93CF93DF93EC017A
:1009700061E088890E94E5026A817B818C819D818A
:100980000E94490B6230710548F0660F771F660FB1
:10099000771F65507109CB010197F1F760E08A89F3
:1009A0000E94E5022A893B893327F901E15EFE4F67
:1009B0006491F901E050FF4FE491F0E0EE0FFF1F6A
:1009C000E653FF4F8591949100E412E42FE030E06C
:1009D000462F0E940708611571058105910549F0B0
:1009E000DC01CB010196A11DB11DBC01CD019F70A1
:1009F00003C060E070E0CB010E94780B2E853F853C
:100A00002115310541F02130310561F42E813F81FE
:100A10004885598504C02A853B854C855D850E94A3
:100A2000D70A04C060E070E080E89FEBDF91CF91CF
:100A30001F910F9108951F920F920FB60F921124DC
:100A40008F939F938091E1009091E100937F909329
:100A5000E10083FF0FC01092E90091E09093EB005A
:100A60001092EC0092E39093ED001092620198E0F6
:100A70009093F00082FF20C093E09093E900909162
:100A8000F200992319F09AE39093E80090915401B1
:100A9000992339F0909154019150909354019923E6
:100AA00089F190916101992339F090916101915000
:100AB00090936101992341F184FF10C08091E2007D
:100AC0008E7E81608093E2008091E1008F7E809332
:100AD000E100809153018E7E806111C080FF16C0BD
:100AE0008091E2008E7E80618093E2008091E1003F
:100AF0008E7E8093E100809153018E7E8160809391
:100B0000530104C05D9ACDCF289AD6CF9F918F9183
:100B10000F900FBE0F901F9018951F920F920FB657
:100B20000F921124CF92DF92EF92FF920F931F93B7
:100B30002F933F934F935F936F937F938F939F93E5
:100B4000AF93BF93EF93FF93CF93DF93CDB7DEB710
:100B50006C97DEBFCDBF1092E9008091E80083FF63
:100B6000EDC168E0CE0145960E94280282EF809395
:100B7000E8008D8987FF05C09091E80090FFFCCFC9
:100B800003C09EEF9093E800982F907609F0C6C0BE
:100B90009E892F89188D91110CC0803829F480917D
:100BA00052018093F10002C01092F1001092F10006
:100BB00048C1422F50E0512B913051F4811141C175
:100BC0004130510509F03DC1809152018D7F0BC02C
:100BD000933061F4811135C14130510509F031C1C3
:100BE000809152018260809352012BC1953041F473
:100BF0008091E80080FFFCCF20682093E30021C1B2
:100C0000963009F05FC0EB8CFC8C1092E9001092DA
:100C1000500110924F01123091F510924E01109236
:100C20004D010E94F60199E0BE016F5F7F4FDB012D
:100C3000E92F1D92EA95E9F799831A8391E09E8343
:100C400090EA98879AEF998720914F01309150014F
:100C5000275F3F4F3C832B838D831092E9001092D6
:100C6000500110924F01F0924E01E0924D0149E087
:100C700050E080E00E94CF010E94F601E2C0F092B5
:100C80004E01E0924D010E945001DC011296ED9060
:100C9000FC901397E114F10409F4C0C0D701ED9161
:100CA000FC910480F581E02DBE016B5E7F4FC70192
:100CB0000995009719F00CF0C4C0C7C0F701E08493
:100CC000F184E8CF973009F4C0C0983021F481E076
:100CD0008093F100B6C0993009F0B3C0837009F079
:100CE000B4C0E3E1F1E081E021E036E390819923B3
:100CF00061F08093E9002093EB0091919093EC00D8
:100D00003093ED008F5F873089F78EE78093EA009C
:100D10001092EA008F898093620193C08B8D9C8D25
:100D20001092E9001092500110924F0190934E01E1
:100D300080934D01898D811156C08E899D89913A8C
:100D400059F4813209F081C047E050E064E071E07D
:100D500080E00E94CF0175C0913209F076C08332E5
:100D600089F4888D90E0982F88272F89822BA0E026
:100D7000B0E08093000190930101A0930201B09331
:100D800003015FC0803269F48091E80082FFFCCFEC
:100D900067E084E091E00E9428028BEF8093E800F6
:100DA00006C0823209F04DC08F8980930B0180917B
:100DB0005101882319F0EEEFFAE002C0E0E0F8E01C
:100DC0008091040190910501A0910601B091070165
:100DD000803B9440A105B10509F07BC080910B01D7
:100DE00080FF93C076C00E945001DC0112960D91E5
:100DF0001C9113970115110541F1D801ED91FC915A
:100E00000190F081E02DBE016B5E7F4FC801099516
:100E1000811117C0F80100851185ECCF113009F45C
:100E20004EC0133091F48F89882309F445C0823075
:100E300081F440E860E181EC91E00E949201882316
:100E400021F08EEF8093E80079C081E28093EB007F
:100E500075C0813029F440E86BE085EB91E0EDCF7F
:100E6000833099F70E945001DC011296ED90FC90BE
:100E700013978E010F5F1F4F6801E114F10479F0A1
:100E8000D701ED91FC910680F781E02DB801C701F3
:100E90000995080F111DF701E084F184EECFD80108
:100EA0001C92F60101900020E9F73197BF016C19FF
:100EB0007D0940E0C601C1CF6FE971E002C063EA7D
:100EC00071E06115710509F2FB01449150E080E881
:100ED00040CF0FB6F894A895809160008861809308
:100EE0006000109260000FBEA895EE3F2AE0F20766
:100EF00039F08091FE0A9091FF0A91838083A1CFFF
:100F00001092FF0A1092FE0A9CCFEE3F8AE0F8078B
:100F100031F0808191819093FF0A8093FE0A87E7E8
:100F200097E7918380839BE088E10FB6F894A895BA
:100F3000809360000FBE9093600083CF6C960FB6D5
:100F4000F894DEBF0FBECDBFDF91CF91FF91EF913F
:100F5000BF91AF919F918F917F916F915F914F91D1
:100F60003F912F911F910F91FF90EF90DF90CF90C5
:100F70000F900FBE0F901F9018951F920F920FB6F3
:100F80000F9211242F933F938F939F93AF93BF930F
:100F90008091450190914601A0914701B09148018F
:100FA0003091440123E0230F2D3720F40196A11D39
:100FB000B11D05C026E8230F0296A11DB11D209387
:100FC00044018093450190934601A0934701B0935B
:100FD00048018091490190914A01A0914B01B09143
:100FE0004C010196A11DB11D8093490190934A01C6
:100FF000A0934B01B0934C01BF91AF919F918F9102
:101000003F912F910F900FBE0F901F901895CF9288
:10101000DF92EF92FF920F931F93E82FF92F05C0F5
:10102000015011092109310961F19081962394172A
:10103000B9F305C0015011092109310911F190815D
:1010400096239413F7CFC12CD12CE12CF12C0AC09C
:101050008FEFC81AD80AE80AF80A0C151D052E05E4
:101060003F0579F080818623841791F36C2D7D2DC7
:101070008E2D9F2D1F910F91FF90EF90DF90CF90BD
:10108000089560E070E080E090E01F910F91FF9084
:10109000EF90DF90CF9008952F923F924F925F9202
:1010A0006F927F928F929F92AF92BF92CF92DF9278
:1010B000EF92FF920F931F93CF93DF93E3E6F1E05C
:1010C0001382128288EE93E0A0E0B0E084839583DF
:1010D000A683B7838DE191E0918380838FEF9FEFAB
:1010E000958784878CE4E82E82E0F82EEFE3F1E028
:1010F000D7011196FC93EE932CE330E013963C93CA
:101100002E93129781E090E015969C938E931497FE
:10111000212C312C412C40E4542E18962D923D92D6
:101120004D925C921B9746E253E969E47FE31C967B
:101130004D935D936D937C931F9717969C938E931D
:1011400016970CE312E0D8011196FC93EE931396D8
:101150003C932E93129715969C938E931497F801B7
:1011600020863186428653861C964D935D936D93FF
:101170007C931F9717961C921E921697C8E2D2E096
:1011800087E391E09983888380E090E0A0E2B1E476
:101190008A839B83AC83BD8380E090E0A4E1B3E4C9
:1011A0008E839F83A887B98780E090E0A8E6B2E4A9
:1011B0008A879B87AC87BD871F861E868EE090E05E
:1011C000998B888B8FE090E09B8B8A8B61E08EE01F
:1011D0000E94480360E08A890E94480353E2852EFA
:1011E00052E0952E6FE2662E61E0762EF401718258
:1011F000608261E085E00E94480385E090E0D401D0
:1012000014969C938E9313977EE1A72E72E0B72ECF
:10121000F5017182608261E087E00E94480387E007
:1012200090E0D50114969C938E931397E9E1CE2E0E
:10123000E2E0DE2EF6017182608261E086E00E94CB
:10124000480386E090E0D60114969C938E93139702
:10125000EDE0F2E0148215821682178280E090E0C1
:10126000A0E8BFE380879187A287B387E1E0F2E03F
:10127000148215821682178280879187A287B3878E
:10128000E5EFF1E01482158216821782808791873C
:10129000A287B387EFEDF1E01682178210861186E0
:1012A00026863786408A518A81E0828B138A938210
:1012B0008282F582E48240E050E06CE872E442878A
:1012C000538764877587848B858B11821082E9EC44
:1012D000F1E0168217821086118626863786408AAC
:1012E000518A828B138AB382A28215830483428738
:1012F000538764877587848B858B11821082E3EB1B
:10130000F1E0168217821086118626863786408A7B
:10131000518A828B138AD382C282D583C483428747
:10132000538764877587848B858B11821082DF9148
:10133000CF911F910F91FF90EF90DF90CF90BF90D2
:10134000AF909F908F907F906F905F904F903F9065
:101350002F900895789484B5826084BD84B58160AF
:1013600084BD85B5826085BD85B5816085BD809170
:101370006E00816080936E001092810080918100E8
:1013800082608093810080918100816080938100E0
:1013900080918000816080938000809191008260C4
:1013A0008093910080919100816080939100809161
:1013B00090008160809390008091C1008460809350
:1013C000C1008091C10082608093C1008091C10002
:1013D00081608093C1008091C30081608093C300CD
:1013E0008091C00082608093C0008091C2008160C3
:1013F0008093C20080917A00846080937A0080910B
:101400007A00826080937A0080917A008160809374
:101410007A0080917A00806880937A00109262014D
:1014200010925201109253018091D70081608093F5
:10143000D70080EA8093D80089B5806189BD89B5DD
:10144000826089BD09B400FEFDCF0E94A90380918E
:10145000D8008F7C80618093D8008091E000807FED
:101460008093E0008091E1008E7E8093E1008DE02A
:101470008093E200559A209AEEEFFFE785919491D0
:101480008B3F9C4D19F481E0809351018FEF9FEFCA
:101490009093700180936F011092F1011092DB0123
:1014A0001092C501C0E0D0E08091DE01882399F060
:1014B0008091CD019091CE01DC01ED91FC910190E4
:1014C000F081E02D09956093CF017093D001809356
:1014D000D1019093D201C090CF01D090D001E09083
:1014E000D101F090D2018090D3019090D401A090CE
:1014F000D501B090D601A5019401C701B6010E94A3
:101500002A0C18169CF48091DB01882381F18091CC
:10151000DD01882331F18091CB019091CC01DC0178
:10152000ED91FC910190F081E02D1AC0A50194018C
:10153000C701B6010E94D20A87FF13C08091DB0168
:1015400081110FC08091DD01882359F08091CB017A
:101550009091CC01DC01ED91FC910280F381E02DB2
:101560000995209709F4A0CF0E9400009DCFA50106
:101570009401C701B6010E94D20A87FDE3CFF1CFE3
:101580008091B5019091B6010E94CA0C8091CB0167
:101590009091CC010E94CA0C8091E1019091E201EE
:1015A0000C94CA0C0E94B50B08F481E008950E94C7
:1015B000EB0A0C94F00B0E94E90B58F00E94E20B2E
:1015C00040F029F45F3F29F00C94D90B51110C9491
:1015D000240C0C94DF0B0E94010C68F39923B1F3E7
:1015E000552391F3951B550BBB27AA276217730749
:1015F000840738F09F5F5F4F220F331F441FAA1FDD
:10160000A9F335D00E2E3AF0E0E832D09150504098
:10161000E695001CCAF72BD0FE2F29D0660F771F46
:10162000881FBB1F261737074807AB07B0E809F02C
:10163000BB0B802DBF01FF2793585F4F3AF09E3FB1
:10164000510578F00C94D90B0C94240C5F3FE4F313
:10165000983ED4F3869577956795B795F7959F5FF4
:10166000C9F7880F911D9695879597F90895E1E040
:10167000660F771F881FBB1F621773078407BA079F
:1016800020F0621B730B840BBA0BEE1F88F7E095FA
:1016900008950E94090C88F09F5798F0B92F992758
:1016A000B751B0F0E1F0660F771F881F991F1AF04D
:1016B000BA95C9F714C0B13091F00E94230CB1E083
:1016C00008950C94230C672F782F8827B85F39F082
:1016D000B93FCCF3869577956795B395D9F73EF4E6
:1016E00090958095709561957F4F8F4F9F4F08958E
:1016F000E89409C097FB3EF49095809570956195AC
:101700007F4F8F4F9F4F9923A9F0F92F96E9BB2761
:101710009395F695879577956795B795F111F8CFDD
:10172000FAF4BB0F11F460FF1BC06F5F7F4F8F4F48
:101730009F4F16C0882311F096E911C0772321F03E
:101740009EE8872F762F05C0662371F096E8862FD6
:1017500070E060E02AF09A95660F771F881FDAF72D
:10176000880F9695879597F90895990F0008550F5A
:10177000AA0BE0E8FEEF16161706E807F907C0F017
:1017800012161306E407F50798F0621B730B840B1F
:10179000950B39F40A2661F0232B242B252B21F4F9
:1017A00008950A2609F4A140A6958FEF811D811D99
:1017B000089597F99F6780E870E060E008959FEFD3
:1017C00080EC089500240A941616170618060906D8
:1017D000089500240A9412161306140605060895A7
:1017E000092E0394000C11F4882352F0BB0F40F42F
:1017F000BF2B11F460FF04C06F5F7F4F8F4F9F4F6F
:10180000089557FD9058440F551F59F05F3F71F0F0
:101810004795880F97FB991F61F09F3F79F0879557
:101820000895121613061406551FF2CF4695F1DFE0
:1018300008C0161617061806991FF1CF8695710570
:10184000610508940895E894BB2766277727CB01A4
:1018500097F908950E94B50B08F48FEF0895EE0FE5
:10186000FF1F0590F491E02D0994CF93DF93823010
:10187000910510F482E090E0E0915E02F0915F0249
:1018800020E030E0C0E0D0E0309711F1408151819C
:1018900048175907C0F04817590761F482819381AE
:1018A000209719F09B838A832BC090935F028093CB
:1018B0005E0226C02115310519F04217530718F4AE
:1018C0009A01BE01DF01EF010280F381E02DDCCF40
:1018D0002115310509F1281B390B2430310590F40D
:1018E00012968D919C9113976115710521F0FB0162
:1018F0009383828304C090935F0280935E02FD0114
:10190000329644C0FD01E20FF31F81939193225060
:1019100031092D933C933AC020915C0230915D02D5
:10192000232B41F420910E0130910F0130935D0281
:1019300020935C0220910C0130910D01211531059D
:1019400041F42DB73EB74091100150911101241B75
:10195000350BE0915C02F0915D02E217F307A0F411
:101960002E1B3F0B2817390778F0AC014E5F5F4FF5
:101970002417350748F04E0F5F1F50935D024093C8
:101980005C028193919302C0E0E0F0E0CF01DF912F
:10199000CF9108950F931F93CF93DF93009709F48E
:1019A0008CC0FC0132971382128200915E0210916A
:1019B0005F020115110581F420813181820F931F8F
:1019C00020915C0230915D022817390779F5F09378
:1019D0005D02E0935C0271C0D80140E050E0AE17B8
:1019E000BF0750F412962D913C911397AD0121152C
:1019F000310509F1D901F3CF9D01DA013383228347
:101A000060817181860F971F8217930769F4EC013B
:101A100028813981260F371F2E5F3F4F3183208366
:101A20008A819B8193838283452B29F4F0935F0203
:101A3000E0935E0242C01396FC93EE931297ED0181
:101A4000499159919E01240F351FE217F30771F454
:101A500080819181840F951F029611969C938E939D
:101A60008281938113969C938E931297E0E0F0E02D
:101A7000D80112968D919C911397009719F0F80157
:101A80008C01F6CF8D919C9198012E5F3F4F820F74
:101A9000931F20915C0230915D022817390769F489
:101AA000309729F410925F0210925E0202C01382F6
:101AB000128210935D0200935C02DF91CF911F911F
:101AC0000F91089581E090E0F8940C94670D10E078
:101AD000CAEED0E004C0FE010E942F0C2196CB3E3E
:081AE000D107C9F7F894FFCF0C
:101AE800FFFFFFFF00E100000000000000006002AF
:101AF800800000C18081000000000000006002C377
:101B08000381027602C7028502A30200000000AA30
:101B180004A404000000009D04B304000000009D1C
:041B2800044304006E
:00000001FF
