:100000000C94E4000C940C010C940C010C940C0165
:100010000C940C010C940C010C940C010C940C012C
:100020000C940C010C940C010C94ED060C94A90397
:100030000C940C010C940C010C940C010C940C010C
:100040000C940C010C940C010C940C010C940C01FC
:100050000C940C010C940C010C940C010C943A06B9
:100060000C940C010C940C010C940C010C940C01DC
:100070000C940C010C940C010C940C010C940C01CC
:100080000C940C010C940C010C940C010C940C01BC
:100090000C940C010C940C010C940C010C940C01AC
:1000A0000C940C010C940C010C940C010502080238
:1000B000F701FB01FF012902290229020C021002AB
:1000C00014021A021E022902240207060504010076
:1000D000080A0B0C0D0900000000240027002A006C
:1000E0002D00300000000000250028002B002E000D
:1000F00031000404040404030405020202020403A0
:1001000002020202060606060606040402020204B1
:100110000404080201104080401020408040800804
:100120000204018040201002011080102040402075
:100130000000000200090F0000030401000C000091
:1001400000000000000000000000000000000008A7
:100150000B0002020201000904000001020200007B
:1001600005240010010524010101042402060524D0
:100170000600010705810310004009040100020A7E
:10018000000000070502024000000705830240004E
:10019000000403090412010002EF0201404123366A
:1001A0008000010102030141726475696E6F204C89
:1001B0004C430041726475696E6F204C656F6E61CF
:1001C00072646F00A909970911241FBECFEFDAE00E
:1001D000DEBFCDBF11E0A0E0B1E0ECE8FEE102C07F
:1001E00005900D92AC33B107D9F722E0ACE3B1E052
:1001F00001C01D92A13AB207E1F710E0C3EED0E0D2
:1002000004C02197FE010E94010EC23ED107C9F72A
:100210000E949C070C94390F0C94000040915901E6
:1002200050915A01209157013091580142175307BC
:10023000B4F49091E8009570E1F39091E80092FD9C
:1002400019C08093F1008091590190915A01019653
:100250008F739927892B19F48EEF8093E800809192
:10026000590190915A01019690935A018093590136
:1002700081E0089580E00895DF92EF92FF920F935E
:100280001F93CF93DF93D82E8A017B01E40EF51ED6
:10029000EB01CE15DF0571F0D7FE03C0FE0184919E
:1002A00001C088810E940E0121968111F2CF8FEF4B
:1002B0009FEF01C0C801DF91CF911F910F91FF9077
:1002C000EF90DF900895615030F02091F100FC0133
:1002D00020830196F8CF289884E680935F010895E3
:1002E000CF92DF92EF92FF920F931F93CF93DF9302
:1002F0006C017A018B01C0E0D0E0CE15DF0589F0FA
:10030000D8016D918D01D601ED91FC910190F081A4
:10031000E02DC6010995892B11F47E0102C02196BA
:10032000ECCFC701DF91CF911F910F91FF90EF901C
:10033000DF90CF900895CF93DF931F92CDB7DEB7B4
:100340006983DC01ED91FC910280F381E02D41E0B5
:1003500050E0BE016F5F7F4F09950F90DF91CF9105
:10036000089583E08093E9008091F200882319F0DA
:100370008AE38093E8000895FC018485958597FDC4
:100380000BC09FB7F89482E08093E9008091F2005F
:100390009FBF90E0019608959FB7F89482E0809304
:1003A000E9008091F2009FBF90E00895089580E0F9
:1003B00090E00895362F90E0FC01E05DFE4F4491FF
:1003C000FC01EF5EFE4F2491FC01EE50FF4F849143
:1003D000882309F451C04423E1F150E0FA01319738
:1003E000EF30F105B0F5EA5AFF4F0C94010E9091F1
:1003F00080009F7707C0909180009F7D03C09091FF
:100400008000977F9093800024C094B59F7702C0AE
:1004100094B59F7D94BD1DC0909190009F7707C0BB
:10042000909190009F7D03C090919000977F909352
:1004300090000FC09091C0009F7703C09091C000C2
:100440009F7D9093C00005C09091C200977F9093CC
:10045000C200E82FF0E0EE0FFF1FEC51FF4FA59117
:10046000B4918FB7F894EC91311103C020952E23ED
:1004700001C02E2B2C938FBF0895CF93DF93EC01F7
:10048000EE81E23108F0E251F0E0E653FF4FE491F3
:1004900080917B00E3FB222720F930E045E0220F2A
:1004A000331F4A95E1F78F7D282B20937B00E7705F
:1004B000E064E0937C0080917A00806480937A000D
:1004C00080917A0086FDFCCF609178008091790060
:1004D00070E0782B072E000C880B990B0E94DF0C24
:1004E000EA81FB81E230F10538F0EE0FFF1FEE0FDD
:1004F000FF1F35973197F1F72C813D81211531058B
:1005000041F02130310561F42C853D854E855F85B4
:1005100004C0288539854A855B850E946B0C04C020
:1005200060E070E080E89FEBDF91CF910895DC01FF
:10053000ED91FC910280F381E02D0994FC0112827F
:1005400060E083810C94DA0121E0FC01228361E008
:1005500083810C94DA010F931F93CF93DF931F9243
:10056000CDB7DEB782E0898342E450E06FE471E00A
:1005700080E80E943C010E94D906DC0112960D9190
:100580001C9113970115110569F0D801ED91FC91AB
:100590000280F381E02DBE016F5F7F4FC801099596
:1005A00097FF07C089810F90DF91CF911F910F9125
:1005B0000895F80100851185E5CF8F929F92AF9243
:1005C000BF92CF92DF92EF92FF920F931F93CF9340
:1005D000DF936C015B017A0180910B01882309F4A0
:1005E00056C080916001882309F451C080915D015B
:1005F00080FF05C08091E00082608093E000E70109
:1006000010E00AEF83E0882E9AE3992E2097B1F14B
:100610000E94C806811105C00150C9F10E948406DC
:10062000F5CF282F30E0C217D3070CF48C2F4FB72B
:10063000F8948092E9009091E80095FF1DC0282F62
:1006400030E0C21BD30BF501982F915020F081911F
:100650008093F100FACFA20EB31E112319F09092ED
:10066000E80009C08091E80085FD06C09092E8008E
:1006700011E0209709F010E04FBFC8CF1111C8CF8B
:100680005D9884E680935E011E141F0444F081E0AF
:1006900090E0F6019383828380E090E001C0C7017F
:1006A000DF91CF911F910F91FF90EF90DF90CF904E
:1006B000BF90AF909F908F9008950E94C80690E0E1
:1006C00008950F931F93CF93DF931F92CDB7DEB79B
:1006D0008C01FC018485958597FF0EC0CE010196A3
:1006E0000E949E06019719F4298130E002C02FEF85
:1006F0003FEFF80135872487F801848595850F90B1
:10070000DF91CF911F910F910895CF93DF931F92A7
:10071000CDB7DEB7FC018485958597FD05C02FEF29
:100720003FEF358724870BC0CE0101960E949E06BD
:10073000019719F4898190E002C08FEF9FEF0F902D
:10074000DF91CF9108950E94340F83E491E00C94DF
:100750009C0E1F920F920FB60F921124CF92DF9230
:10076000EF92FF920F931F932F933F934F935F93BB
:100770006F937F938F939F93AF93BF93EF93FF9369
:10078000CF93DF93CDB7DEB76C97DEBFCDBF1092AE
:10079000E9008091E80083FFEDC168E0CE01459655
:1007A0000E94630182EF8093E8008D8987FF05C076
:1007B0009091E80090FFFCCF03C09EEF9093E8007B
:1007C000982F907609F0C6C09E892F89188D9111B7
:1007D0000CC0803829F480915C018093F10002C044
:1007E0001092F1001092F10048C1422F50E0512BBD
:1007F000913051F4811141C14130510509F03DC1A1
:1008000080915C018D7F0BC0933061F4811135C103
:100810004130510509F031C180915C0182608093C3
:100820005C012BC1953041F48091E80080FFFCCF42
:1008300020682093E30021C1963009F05FC0EB8C63
:10084000FC8C1092E90010925A011092590112305A
:1008500091F510925801109257010E94AB0299E055
:10086000BE016F5F7F4FDB01E92F1D92EA95E9F72B
:1008700099831A8391E09E8390EA98879AEF9987EB
:100880002091590130915A01275F3F4F3C832B83C0
:100890008D831092E90010925A0110925901F09242
:1008A0005801E092570149E050E080E00E943C018D
:1008B0000E94AB02E2C0F0925801E09257010E9400
:1008C000D906DC011296ED90FC901397E114F10427
:1008D00009F4C0C0D701ED91FC910480F581E02DB1
:1008E000BE016B5E7F4FC7010995009719F00CF0B0
:1008F000C4C0C7C0F701E084F184E8CF973009F4A1
:10090000C0C0983021F481E08093F100B6C09930E6
:1009100009F0B3C0837009F0B4C0E3E1F1E081E015
:1009200021E036E39081992361F08093E9002093E0
:10093000EB0091919093EC003093ED008F5F873046
:1009400089F78EE78093EA001092EA008F898093FE
:10095000600193C08B8D9C8D1092E90010925A011A
:10096000109259019093580180935701898D8111FC
:1009700056C08E899D89913A59F4813209F081C01F
:1009800047E050E064E071E080E00E943C0175C007
:10099000913209F076C0833289F4888D90E0982FE7
:1009A00088272F89822BA0E0B0E0809300019093EC
:1009B0000101A0930201B09303015FC0803269F48A
:1009C0008091E80082FFFCCF67E084E091E00E9424
:1009D00063018BEF8093E80006C0823209F04DC0BE
:1009E0008F8980930B0180915B01882319F0EEEFD2
:1009F000FAE002C0E0E0F8E0809104019091050186
:100A0000A0910601B0910701803B9440A105B1057A
:100A100009F07BC080910B0180FF93C076C00E94DB
:100A2000D906DC0112960D911C9113970115110541
:100A300041F1D801ED91FC910190F081E02DBE01D2
:100A40006B5E7F4FC8010995811117C0F8010085C1
:100A50001185ECCF113009F44EC0133091F48F8919
:100A6000882309F445C0823081F440E860E183EBDB
:100A700091E00E945F07882321F08EEF8093E800C9
:100A800079C081E28093EB0075C0813029F440E8A1
:100A90006BE087EA91E0EDCF833099F70E94D906A9
:100AA000DC011296ED90FC9013978E010F5F1F4FA3
:100AB0006801E114F10479F0D701ED91FC91068011
:100AC000F781E02DB801C7010995080F111DF70145
:100AD000E084F184EECFD8011C92F6010190002051
:100AE000E9F73197BF016C197D0940E0C601C1CF1C
:100AF00061E971E002C065E971E06115710509F213
:100B0000FB01449150E080E840CF0FB6F894A895DF
:100B100080916000886180936000109260000FBE39
:100B2000A895EE3F2AE0F20739F08091FE0A9091F5
:100B3000FF0A91838083A1CF1092FF0A1092FE0AD0
:100B40009CCFEE3F8AE0F80731F08081918190934D
:100B5000FF0A8093FE0A87E797E7918380839BE0F3
:100B600088E10FB6F894A895809360000FBE90932B
:100B7000600083CF6C960FB6F894DEBF0FBECDBF7A
:100B8000DF91CF91FF91EF91BF91AF919F918F91A5
:100B90007F916F915F914F913F912F911F910F9195
:100BA000FF90EF90DF90CF900F900FBE0F901F90AF
:100BB0001895CF93DF9390E0FC01EF5EFE4F2491F8
:100BC000FC01EE50FF4F8491882361F190E0880F83
:100BD000991FFC01EA52FF4FC591D491FC01EC51E1
:100BE000FF4FA591B491611109C09FB7F894888116
:100BF000209582238883EC912E230BC0623061F410
:100C00009FB7F8943881822F809583238883EC9155
:100C10002E2B2C939FBF06C08FB7F894E8812E2B04
:100C200028838FBFDF91CF9108953FB7F8948091CB
:100C30003D0190913E01A0913F01B091400126B548
:100C4000A89B05C02F3F19F00196A11DB11D3FBF04
:100C5000BA2FA92F982F8827820F911DA11DB11D92
:100C6000BC01CD0142E0660F771F881F991F4A958E
:100C7000D1F708951F920F920FB60F9211242F9360
:100C80003F938F939F93AF93BF938091B1019091C6
:100C9000B201A091B301B091B40130913C0123E0C5
:100CA000230F2D3720F40196A11DB11D05C026E8A4
:100CB000230F0296A11DB11D20933C018093B10129
:100CC0009093B201A093B301B093B40180913D0120
:100CD00090913E01A0913F01B09140010196A11D6C
:100CE000B11D80933D0190933E01A0933F01B093CD
:100CF0004001BF91AF919F918F913F912F910F90A4
:100D00000FBE0F901F901895CF92DF92EF92FF9237
:100D10000E9415066B017C010E941506DC01CB01C7
:100D20008C199D09AE09BF09883E9340A105B10504
:100D300098F3FF90EF90DF90CF900895FC018091A1
:100D40006001811103C08FEF9FEF08959FB7F89462
:100D500082E08093E9002091F20030E01216130641
:100D600014F421E030E02115310559F0289884E68B
:100D700080935F018091F10080838091F20088234D
:100D800019F09FBFC90108958BE68093E800F9CF61
:100D90002FB7F89483E08093E9009091E800892FC1
:100DA000807295FF04C09091F20080E4891B2FBFF0
:100DB000089580918D0281110DC082E08093890297
:100DC00084E080938A0210928C0210928B0281E060
:100DD00080938D0289E892E008951F920F920FB6DA
:100DE0000F9211248F939F938091E1009091E100E5
:100DF000937F9093E10083FF0FC01092E90091E090
:100E00009093EB001092EC0092E39093ED0010921F
:100E1000600198E09093F00082FF20C093E09093EF
:100E2000E9009091F200992319F09AE39093E80079
:100E300090915E01992339F090915E0191509093C9
:100E40005E01992389F190915F01992339F0909186
:100E50005F01915090935F01992341F184FF10C08D
:100E60008091E2008E7E81608093E2008091E100BB
:100E70008F7E8093E10080915D018E7E806111C044
:100E800080FF16C08091E2008E7E80618093E20038
:100E90008091E1008E7E8093E10080915D018E7EE5
:100EA000816080935D0104C05D9ACDCF289AD6CF32
:100EB0009F918F910F900FBE0F901F901895CF921A
:100EC000DF92EF92FF920F931F93CF93DF931F92C6
:100ED000CDB7DEB7182F062FE42E862F880F8E5F32
:100EE00099830E940E0183E00E940E01F12EC12E13
:100EF0009981D92E8C2D8F19801798F4F601E7FE71
:100F000002C0849101C080810E940E01182F80E0F0
:100F10000E940E018123FFEFCF1ADF0A8111EACF71
:100F200001C081E00F90DF91CF911F910F91FF9051
:100F3000EF90DF90CF900895CF93DF9300D000D053
:100F400000D0CDB7DEB7789484B5826084BD84B517
:100F5000816084BD85B5826085BD85B5816085BDB4
:100F600080916E00816080936E001092810080916C
:100F700081008260809381008091810081608093F4
:100F80008100809180008160809380008091910039
:100F900082608093910080919100816080939100A4
:100FA000809190008160809390008091C100846066
:100FB0008093C1008091C10082608093C1008091C4
:100FC000C10081608093C1008091C30081608093E3
:100FD000C3008091C00082608093C0008091C200F5
:100FE00081608093C20080917A00846080937A004F
:100FF00080917A00826080937A0080917A0081608B
:1010000080937A0080917A00806880937A001092B1
:10101000600110925C0110925D018091D7008160A7
:101020008093D70080EA8093D80089B5806189BD1C
:1010300089B5826089BD09B400FEFDCF0E94840697
:101040008091D8008F7C80618093D8008091E000EF
:10105000807F8093E0008091E1008E7E8093E100AC
:101060008DE08093E200559A209AEEEFFFE785919C
:1010700094918B3F9C4D19F481E080935B018FEF3D
:101080009FEF90936E0180936D0110925602109223
:1010900022021092EE018091410190914201FC01E7
:1010A000EE0FFF1FED5BFE4F26E232E0318320831F
:1010B0000196FC01EE0FFF1FED5BFE4F22EF31E0CA
:1010C000318320830196FC01EE0FFF1FED5BFE4F85
:1010D0002EEB31E03183208301969093420180937F
:1010E000410161E08EE00E94D90560E08FE00E943E
:1010F000D9058FB7F8944091B1015091B201609138
:10110000B3017091B4018FBF8091B5019091B60188
:10111000A091B701B091B801481B590B6A0B7B0B2A
:101120008091B9019091BA01092E000CAA0BBB0B5A
:1011300084179507A607B70738F080E090E0892B61
:10114000C1F20E940000D5CF2FB7F8948091B10171
:101150009091B201A091B301B091B4012FBF8093DF
:10116000B5019093B601A093B701B093B80183E4A1
:10117000282E81E0382E00E010E08091410190910E
:10118000420108171907CCF6D101ED91FD911D011F
:10119000FE83ED8383A9882379F084819581DC0126
:1011A000ED91FC910190F081E02D0995ED81FE819A
:1011B00064A375A386A397A3AD81BE8190964D903D
:1011C0005D906D907C90939754962D913D914D91AB
:1011D0005C915797C301B2010E94FA0B9B01AC01CD
:1011E000C301B2010E946B0C69837A838B839C8359
:1011F000ED81FE8180889188A288B3880684F78576
:10120000E02DA501940160817181828193810E940A
:10121000F90B9B01AC0169817A818B819C810E94D1
:10122000940D9B01AC01C501B4010E94FA0B6B0146
:101230007C0129813A814B815C8160E070E080E82B
:101240009FE30E94F90BA30192010E94940D2B01D0
:101250003C01A7019601C501B4010E94F90B9F77DB
:10126000AD81BE815C962D913D914D915C915F97D2
:101270000E94940D9B01AC01C301B2010E94FA0BC4
:10128000ED81FE8160A371A382A393A3C08AD18A5A
:10129000E28AF38AC4A2D5A2E6A2F7A280A491A40E
:1012A000A2A4B3A4A5019401C701B6010E948F0DA9
:1012B000181644F4AD81BE81D0968C91D0978823C6
:1012C00001F10FC0A5019401C701B6010E94660C8F
:1012D00087FF1FC0ED81FE8180A981111AC0AD81F9
:1012E000BE81D2968C91D2978823F1F012968D917F
:1012F0009C911397DC01ED91FC910190F081E02D20
:1013000012C0A5019401C701B6010E94660C87FDB9
:10131000E6CFED81FE8182819381DC01ED91FC912C
:101320000280F381E02D09950F5F1F4F26CF80913A
:10133000C0019091C1010E949C0E8091F401909196
:10134000F5010E949C0E80912802909129020C9434
:101350009C0E4F925F926F927F928F929F92AF926C
:10136000BF92CF92DF92EF92FF920F931F93CF9392
:10137000DF93109264011092630188EE93E0A0E085
:10138000B0E08093650190936601A0936701B093EC
:1013900068018DE191E090936201809361018FEF8C
:1013A0009FEF90936E0180936D01E7E3F1E0F0937E
:1013B0007A02E09379022CE330E030937C022093B0
:1013C0007B0281E090E090937E0280937D02C12CAD
:1013D000D12CE12C40E4F42EC0928102D092820202
:1013E000E0928302F092840246E253E969E47FE3EB
:1013F000409385025093860260938702709388021F
:101400009093800280937F02C9E6D2E0F0936A0253
:10141000E093690230936C0220936B0290936E020A
:1014200080936D02C0927102D0927202E0927302B8
:10143000F0927402409375025093760260937702A3
:10144000709378021092700210926F020FE211E016
:10145000109365020093640261E085E00E94D90563
:1014600085E090E090936802809367021093600299
:1014700000935F0261E087E00E94D90587E090E079
:10148000909363028093620210935B0200935A026E
:1014900061E086E00E94D90586E090E090935E02CC
:1014A00080935D025AE0852E57ED952E53EAA52EC6
:1014B0005CE3B52E80922C0290922D02A0922E0217
:1014C000B0922F0280E090E0A8ECB1E4809330026B
:1014D00090933102A0933202B093330280933A0288
:1014E00090933B02A0933C02B0933D0280933E0256
:1014F00090933F02A0934002B09341028092420237
:1015000090924302A0924402B09245022AE432E053
:10151000309335022093340240914A0250914B029D
:1015200060914C0270914D02409336025093370205
:101530006093380270933902809346029093470279
:10154000A0934802B093490210924A0210924B02B3
:1015500010924C0210924D02C0925202D09253024D
:10156000E0925402F092550221E02093560210922C
:10157000570244E652E0509329024093280249E77B
:1015800052E050932B0240932A02412C512C6CE8DC
:10159000662E62E4762E40924E0250924F02609286
:1015A00050027092510220935802209359021092D7
:1015B0002702109226028092F8019092F901A092DF
:1015C000FA01B092FB018093FC019093FD01A0937E
:1015D000FE01B093FF018093060290930702A0934F
:1015E0000802B093090280930A0290930B02A09321
:1015F0000C02B0930D0280920E0290920F02A09204
:101600001002B092110246E152E050930102409361
:1016100000024091160250911702609118027091D9
:1016200019024093020250930302609304027093E4
:1016300005028093120290931302A0931402B093B8
:1016400015021092160210921702109218021092B0
:101650001902C0921E02D0921F02E0922002F09264
:10166000210220932202109223024FE552E0509370
:10167000F5014093F401D093F701C093F601409235
:101680001A0250921B0260921C0270921D0220935B
:101690002402209325021092F3011092F20180920D
:1016A000C4019092C501A092C601B092C701809377
:1016B000C8019093C901A093CA01B093CB01809354
:1016C000D2019093D301A093D401B093D50180931C
:1016D000D6019093D701A093D801B093D9018092FD
:1016E000DA019092DB01A092DC01B092DD0142EEC2
:1016F00051E05093CD014093CC014091E2015091D3
:10170000E3016091E4017091E5014093CE015093B3
:10171000CF016093D0017093D1018093DE0190934B
:10172000DF01A093E001B093E1011092E201109279
:10173000E3011092E4011092E501C092EA01D09217
:10174000EB01E092EC01F092ED012093EE0110929A
:10175000EF018AE592E09093C1018093C001D0939C
:10176000C301C093C2014092E6015092E70160922A
:10177000E8017092E9012093F0012093F1011092A9
:10178000BF011092BE018091950281111BC082E3BE
:1017900090E09093BA018093B9013FB7F89480919B
:1017A000B1019091B201A091B301B091B4013FBFDA
:1017B0008093B5019093B601A093B701B093B8019F
:1017C000209395028BEB91E09093BD018093BC0137
:1017D000DF91CF911F910F91FF90EF90DF90CF900D
:1017E000BF90AF909F908F907F906F905F904F9041
:1017F00008955058BB27AA270E94110C0C94550D30
:101800000E94470D38F00E944E0D20F039F49F3FA2
:1018100019F426F40C94440D0EF4E095E7FB0C94B7
:101820003E0DE92F0E94660D58F3BA176207730741
:101830008407950720F079F4A6F50C94880D0EF432
:10184000E0950B2EBA2FA02D0B01B90190010C01D0
:10185000CA01A0011124FF27591B99F0593F50F4E8
:10186000503E68F11A16F040A22F232F342F442740
:10187000585FF3CF469537952795A795F040539538
:10188000C9F77EF41F16BA0B620B730B840BBAF008
:101890009150A1F0FF0FBB1F661F771F881FC2F773
:1018A0000EC0BA0F621F731F841F48F48795779587
:1018B0006795B795F7959E3F08F0B0CF9395880F41
:1018C00008F09927EE0F9795879508950E941A0DB5
:1018D00008F481E008950E947F0C0C94550D0E943D
:1018E0004E0D58F00E94470D40F029F45F3F29F05B
:1018F0000C943E0D51110C94890D0C94440D0E94D2
:10190000660D68F39923B1F3552391F3951B550B9D
:10191000BB27AA2762177307840738F09F5F5F4FC2
:10192000220F331F441FAA1FA9F335D00E2E3AF001
:10193000E0E832D091505040E695001CCAF72BD019
:10194000FE2F29D0660F771F881FBB1F261737076A
:101950004807AB07B0E809F0BB0B802DBF01FF279C
:1019600093585F4F3AF09E3F510578F00C943E0D2E
:101970000C94890D5F3FE4F3983ED4F386957795F8
:101980006795B795F7959F5FC9F7880F911D969555
:10199000879597F90895E1E0660F771F881FBB1FB1
:1019A000621773078407BA0720F0621B730B840B5E
:1019B000BA0BEE1F88F7E0950895E89409C097FBED
:1019C0003EF490958095709561957F4F8F4F9F4F16
:1019D0009923A9F0F92F96E9BB279395F69587955A
:1019E00077956795B795F111F8CFFAF4BB0F11F41D
:1019F00060FF1BC06F5F7F4F8F4F9F4F16C08823C4
:101A000011F096E911C0772321F09EE8872F762FF9
:101A100005C0662371F096E8862F70E060E02AF03A
:101A20009A95660F771F881FDAF7880F9695879526
:101A300097F90895990F0008550FAA0BE0E8FEEFFB
:101A400016161706E807F907C0F012161306E40782
:101A5000F50798F0621B730B840B950B39F40A267B
:101A600061F0232B242B252B21F408950A2609F459
:101A7000A140A6958FEF811D811D089597F99F675D
:101A800080E870E060E008959FEF80EC0895002406
:101A90000A941616170618060906089500240A94D3
:101AA00012161306140605060895092E0394000C59
:101AB00011F4882352F0BB0F40F4BF2B11F460FFE8
:101AC00004C06F5F7F4F8F4F9F4F089557FD905811
:101AD000440F551F59F05F3F71F04795880F97FBF2
:101AE000991F61F09F3F79F08795089512161306AC
:101AF0001406551FF2CF4695F1DF08C016161706DB
:101B00001806991FF1CF869571056105089408950F
:101B1000E894BB2766277727CB0197F908950E94A1
:101B20001A0D08F48FEF08950E94A70D0C94550D1F
:101B30000E94470D38F00E944E0D20F0952311F0C1
:101B40000C943E0D0C94440D11240C94890D0E94AC
:101B5000660D70F3959FC1F3950F50E0551F629F7E
:101B6000F001729FBB27F00DB11D639FAA27F00DF6
:101B7000B11DAA1F649F6627B00DA11D661F829F1D
:101B80002227B00DA11D621F739FB00DA11D621F02
:101B9000839FA00D611D221F749F3327A00D611D1F
:101BA000231F849F600D211D822F762F6A2F112401
:101BB0009F5750409AF0F1F088234AF0EE0FFF1F34
:101BC000BB1F661F771F881F91505040A9F79E3F8B
:101BD000510580F00C943E0D0C94890D5F3FE4F3A9
:101BE000983ED4F3869577956795B795F795E795E1
:101BF0009F5FC1F7FE2B880F911D9695879597F9EA
:101C00000895EE0FFF1F0590F491E02D0994CF93F6
:101C1000DF938230910510F482E090E0E0919F0222
:101C2000F091A00220E030E0C0E0D0E0309711F168
:101C30004081518148175907C0F04817590761F48E
:101C400082819381209719F09B838A832BC0909384
:101C5000A00280939F0226C02115310519F042177A
:101C6000530718F49A01BE01DF01EF010280F381EE
:101C7000E02DDCCF2115310509F1281B390B24306B
:101C8000310590F412968D919C9113976115710511
:101C900021F0FB019383828304C09093A002809380
:101CA0009F02FD01329644C0FD01E20FF31F8193B4
:101CB0009193225031092D933C933AC020919D027B
:101CC00030919E02232B41F420910E0130910F019F
:101CD00030939E0220939D0220910C0130910D01C2
:101CE0002115310541F42DB73EB7409110015091B7
:101CF0001101241B350BE0919D02F0919E02E21729
:101D0000F307A0F42E1B3F0B2817390778F0AC011E
:101D10004E5F5F4F2417350748F04E0F5F1F5093FB
:101D20009E0240939D028193919302C0E0E0F0E017
:101D3000CF01DF91CF9108950F931F93CF93DF933E
:101D4000009709F48CC0FC01329713821282009133
:101D50009F021091A0020115110581F420813181AB
:101D6000820F931F20919D0230919E022817390700
:101D700079F5F0939E02E0939D0271C0D80140E096
:101D800050E0AE17BF0750F412962D913C91139777
:101D9000AD012115310509F1D901F3CF9D01DA011A
:101DA0003383228360817181860F971F8217930787
:101DB00069F4EC0128813981260F371F2E5F3F4FD0
:101DC000318320838A819B8193838283452B29F4ED
:101DD000F093A002E0939F0242C01396FC93EE930F
:101DE0001297ED01499159919E01240F351FE21779
:101DF000F30771F480819181840F951F02961196EB
:101E00009C938E938281938113969C938E931297C9
:101E1000E0E0F0E0D80112968D919C911397009725
:101E200019F0F8018C01F6CF8D919C9198012E5FED
:101E30003F4F820F931F20919D0230919E022817E1
:101E4000390769F4309729F41092A00210929F028A
:101E500002C01382128210939E0200939D02DF91B2
:101E6000CF911F910F91089581E090E0F8940C9428
:101E7000390F10E0C3EED0E004C0FE010E94010E55
:0C1E80002196C43ED107C9F7F894FFCFAB
:101E8C00FFFFFFFF00E10000000000000000A102C6
:101E9C00800000C18081000000000000009B01DD7B
:101EAC00025D03B101BC018503610300000000A4C5
:0C1EBC00029E020000000097023D0200A0
:00000001FF
