:100000000C94E4000C940C010C940C010C940C0165
:100010000C940C010C940C010C940C010C940C012C
:100020000C940C010C940C010C94F6020C946803D3
:100030000C940C010C940C010C940C010C940C010C
:100040000C940C010C940C010C940C010C940C01FC
:100050000C940C010C940C010C940C010C94BD0537
:100060000C940C010C940C010C940C010C940C01DC
:100070000C940C010C940C010C940C010C940C01CC
:100080000C940C010C940C010C940C010C940C01BC
:100090000C940C010C940C010C940C010C940C01AC
:1000A0000C940C010C940C010C940C01B901BC01D2
:1000B000AB01AF01B301DD01DD01DD01C001C40110
:1000C000C801CE01D201DD01D801070605040100F7
:1000D000080A0B0C0D090000000200090F000003C4
:1000E0000401000C000000000000000000000000FF
:1000F0000000000000080B000202020100090400D9
:100100000001020200000524001001052401010184
:10011000042402060524060001070581031000409F
:1001200009040100020A0000000705020240000065
:10013000070583024000000403090412010002EFD6
:100140000201404123368000010102030141726433
:1001500075696E6F204C4C430041726475696E6F17
:10016000204C656F6E6172646F0000000000250016
:1001700028002B002E003100000000002400270082
:100180002A002D00300004040404040304050202C4
:100190000202040302020202060606060606040420
:1001A00002020204040408020110408040102040B2
:1001B000804080080204018040201002011080105D
:1001C000204040208C098B0911241FBECFEFDAE0BC
:1001D000DEBFCDBF11E0A0E0B1E0ECE4FEE102C083
:1001E00005900D92AE36B107D9F722E0AEE6B1E048
:1001F00001C01D92A33DB207E1F710E0C3EED0E0CD
:1002000004C02197FE010E94E10DC23ED107C9F74B
:100210000E949E070C94190F0C940000FC01848529
:10022000958597FD0BC09FB7F89482E08093E90015
:100230008091F2009FBF90E0019608959FB7F894D7
:1002400082E08093E9008091F2009FBF90E00895E2
:10025000089580E090E0089540918B0150918C01C9
:100260002091890130918A0142175307B4F490918B
:10027000E8009570E1F39091E80092FD19C0809339
:10028000F10080918B0190918C0101968F739927D9
:10029000892B19F48EEF8093E80080918B01909167
:1002A0008C01019690938C0180938B0181E00895DD
:1002B00080E00895DF92EF92FF920F931F93CF9308
:1002C000DF93D82E8A017B01E40EF51EEB01CE15DB
:1002D000DF0571F0D7FE03C0FE01849101C0888163
:1002E0000E942C0121968111F2CF8FEF9FEF01C068
:1002F000C801DF91CF911F910F91FF90EF90DF9098
:100300000895615030F02091F100FC0120830196A6
:10031000F8CF289884E6809391010895362F90E0D5
:10032000FC01EA52FF4F4491FC01EB55FE4F249132
:10033000FC01EA57FE4F8491882309F451C04423FD
:10034000E1F150E0FA013197EF30F105B0F5EA5AEA
:10035000FF4F0C94E10D909180009F7707C0909122
:1003600080009F7D03C090918000977F90938000D4
:1003700024C094B59F7702C094B59F7D94BD1DC0E5
:10038000909190009F7707C0909190009F7D03C04F
:1003900090919000977F909390000FC09091C00033
:1003A0009F7703C09091C0009F7D9093C00005C0CF
:1003B0009091C200977F9093C200E82FF0E0EE0F7B
:1003C000FF1FE659FE4FA591B4918FB7F894EC91B9
:1003D000311103C020952E2301C02E2B2C938FBFEB
:1003E0000895FC0162830895FC0182810895CF93F2
:1003F000DF93EC01EE81E23108F0E251F0E0E653E8
:10040000FF4FE49180917B00E3FB222720F930E04D
:1004100045E0220F331F4A95E1F78F7D282B20936B
:100420007B00E770E064E0937C0080917A00806458
:1004300080937A0080917A0086FDFCCF60917800ED
:100440008091790070E0782B072E000C880B990BB7
:100450000E94BF0CEA81FB81E230F10538F0EE0F1B
:10046000FF1FEE0FFF1F35973197F1F72C813D816C
:100470002115310541F02130310561F42C853D8590
:100480004E855F8504C0288539854A855B850E9435
:100490004B0C04C060E070E080E89FEBDF91CF91EF
:1004A0000895DC01ED91FC910680F781E02D09941F
:1004B000CF93DF93EC01E881F9810284F385E02D8D
:1004C00060E0099560E08B81DF91CF910C948E0103
:1004D000CF93DF93EC01E881F9810284F385E02D6D
:1004E00061E0099561E08B81DF91CF910C948E01E1
:1004F000CF93DF931F92CDB7DEB7FC01848595853E
:1005000097FD05C02FEF3FEF358724870BC0CE0145
:1005100001960E942307019719F4898190E002C097
:100520008FEF9FEF0F90DF91CF9108950F931F935F
:10053000CF93DF931F92CDB7DEB78C01FC0184858A
:10054000958597FF0EC0CE0101960E942307019763
:1005500019F4298130E002C02FEF3FEFF801358711
:100560002487F801848595850F90DF91CF911F91A5
:100570000F9108950F931F93CF93DF931F92CDB7E1
:10058000DEB782E0898342E450E065EF70E080E806
:100590000E945A010E944D07DC0112960D911C9198
:1005A00013970115110569F0D801ED91FC910280B6
:1005B000F381E02DBE016F5F7F4FC801099597FF62
:1005C00007C089810F90DF91CF911F910F910895FE
:1005D000F80100851185E5CF0E94140F85E791E0B1
:1005E0000C947C0E0C947C0E0C947C0E1F920F923B
:1005F0000FB60F9211248F939F938091E1009091F9
:10060000E100937F9093E10083FF0FC01092E90017
:1006100091E09093EB001092EC0092E39093ED0048
:100620001092920198E09093F00082FF20C093E036
:100630009093E9009091F200992319F09AE3909336
:10064000E80090918F01992339F090918F0191509A
:1006500090938F01992389F190919101992339F019
:1006600090919101915090939101992341F184FFD0
:1006700010C08091E2008E7E81608093E2008091C4
:10068000E1008F7E8093E100809190018E7E8061F9
:1006900011C080FF16C08091E2008E7E8061809341
:1006A000E2008091E1008E7E8093E10080919001D4
:1006B0008E7E81608093900104C05D9ACDCF289A90
:1006C000D6CF9F918F910F900FBE0F901F901895CE
:1006D0001F920F920FB60F921124CF92DF92EF92DA
:1006E000FF920F931F932F933F934F935F936F93BB
:1006F0007F938F939F93AF93BF93EF93FF93CF938A
:10070000DF93CDB7DEB76C97DEBFCDBF1092E900A7
:100710008091E80083FFEDC168E0CE0145960E941C
:10072000810182EF8093E8008D8987FF05C0909159
:10073000E80090FFFCCF03C09EEF9093E800982F55
:10074000907609F0C6C09E892F89188D91110CC032
:10075000803829F480918E018093F10002C01092BC
:10076000F1001092F10048C1422F50E0512B91301E
:1007700051F4811141C14130510509F03DC18091D1
:100780008E018D7F0BC0933061F4811135C14130F2
:10079000510509F031C180918E01826080938E01F4
:1007A0002BC1953041F48091E80080FFFCCF206898
:1007B0002093E30021C1963009F05FC0EB8CFC8CE4
:1007C0001092E90010928C0110928B01123091F579
:1007D00010928A01109289010E94BA0299E0BE012A
:1007E0006F5F7F4FDB01E92F1D92EA95E9F799834F
:1007F0001A8391E09E8390EA98879AEF99872091D7
:100800008B0130918C01275F3F4F3C832B838D837D
:100810001092E90010928C0110928B01F0928A01E3
:10082000E092890149E050E080E00E945A010E9474
:10083000BA02E2C0F0928A01E09289010E944D075B
:10084000DC011296ED90FC901397E114F10409F489
:10085000C0C0D701ED91FC910480F581E02DBE016F
:100860006B5E7F4FC7010995009719F00CF0C4C06B
:10087000C7C0F701E084F184E8CF973009F4C0C025
:10088000983021F481E08093F100B6C0993009F0EE
:10089000B3C0837009F0B4C0E3E1F1E081E021E08E
:1008A00036E39081992361F08093E9002093EB0077
:1008B00091919093EC003093ED008F5F873089F732
:1008C0008EE78093EA001092EA008F89809392016C
:1008D00093C08B8D9C8D1092E90010928C01109228
:1008E0008B0190938A0180938901898D811156C073
:1008F0008E899D89913A59F4813209F081C047E08F
:1009000050E064E071E080E00E945A0175C09132CD
:1009100009F076C0833289F4888D90E0982F88277B
:100920002F89822BA0E0B0E0809300019093010119
:10093000A0930201B09303015FC0803269F48091FB
:10094000E80082FFFCCF67E084E091E00E94810133
:100950008BEF8093E80006C0823209F04DC08F898A
:1009600080930B0180918D01882319F0EEEFFAE05E
:1009700002C0E0E0F8E08091040190910501A091AF
:100980000601B0910701803B9440A105B10509F033
:100990007BC080910B0180FF93C076C00E944D0701
:1009A000DC0112960D911C9113970115110541F16F
:1009B000D801ED91FC910190F081E02DBE016B5EBC
:1009C0007F4FC8010995811117C0F8010085118575
:1009D000ECCF113009F44EC0133091F48F89882385
:1009E00009F445C0823081F440E860E189E591E096
:1009F0000E946107882321F08EEF8093E80079C080
:100A000081E28093EB0075C0813029F440E86BE00F
:100A10008DE491E0EDCF833099F70E944D07DC0122
:100A20001296ED90FC9013978E010F5F1F4F680197
:100A3000E114F10479F0D701ED91FC910680F78182
:100A4000E02DB801C7010995080F111DF701E084D9
:100A5000F184EECFD8011C92F60101900020E9F755
:100A60003197BF016C197D0940E0C601C1CF67E332
:100A700071E002C06BE371E06115710509F2FB01E1
:100A8000449150E080E840CF0FB6F894A89580914B
:100A90006000886180936000109260000FBEA8958E
:100AA000EE3F2AE0F20739F08091FE0A9091FF0AAA
:100AB00091838083A1CF1092FF0A1092FE0A9CCFEF
:100AC000EE3F8AE0F80731F0808191819093FF0A30
:100AD0008093FE0A87E797E7918380839BE088E114
:100AE0000FB6F894A895809360000FBE90936000B5
:100AF00083CF6C960FB6F894DEBF0FBECDBFDF91EB
:100B0000CF91FF91EF91BF91AF919F918F917F9185
:100B10006F915F914F913F912F911F910F91FF9096
:100B2000EF90DF90CF900F900FBE0F901F90189511
:100B30003FB7F89480916F0190917001A09171017D
:100B4000B091720126B5A89B05C02F3F19F0019600
:100B5000A11DB11D3FBFBA2FA92F982F8827820F43
:100B6000911DA11DB11DBC01CD0142E0660F771F93
:100B7000881F991F4A95D1F708951F920F920FB6BB
:100B80000F9211242F933F938F939F93AF93BF9313
:100B90008091930190919401A0919501B09196015B
:100BA00030916E0123E0230F2D3720F40196A11D13
:100BB000B11D05C026E8230F0296A11DB11D20938B
:100BC0006E018093930190939401A0939501B0934B
:100BD000960180916F0190917001A0917101B09187
:100BE00072010196A11DB11D80936F019093700158
:100BF000A0937101B0937201BF91AF919F918F91BA
:100C00003F912F910F900FBE0F901F901895089550
:100C1000089590E0FC01EB55FE4F2491FC01EA574A
:100C2000FE4F8491882399F090E0880F991FFC0172
:100C3000E858FE4FA591B491FC01E659FE4F85910D
:100C400094918FB7F894EC91E22BEC938FBF0895B9
:100C50002FB7F89483E08093E9009091E800892F02
:100C6000807295FF04C09091F20080E4891B2FBF31
:100C70000895CF92DF92EF92FF920F931F93CF933D
:100C8000DF936C017A018B01C0E0D0E0CE15DF0567
:100C900089F0D8016D918D01D601ED91FC91019003
:100CA000F081E02DC6010995892B11F47E0102C067
:100CB0002196ECCFC701DF91CF911F910F91FF904B
:100CC000EF90DF90CF900895CF93DF931F92CDB731
:100CD000DEB76983DC01ED91FC910280F381E02DA8
:100CE00041E050E0BE016F5F7F4F09950F90DF91AB
:100CF000CF91089583E08093E9008091F2008823EA
:100D000019F08AE38093E80008950E94280690E095
:100D10000895CF92DF92EF92FF920E9498056B01A7
:100D20007C010E949805DC01CB018C199D09AE095C
:100D3000BF09883E9340A105B10598F3FF90EF905D
:100D4000DF90CF9008958F929F92AF92BF92CF92F3
:100D5000DF92EF92FF920F931F93CF93DF936C017B
:100D60005B017A0180910B01882309F456C08091C0
:100D70009201882309F451C08091900180FF05C041
:100D80008091E00082608093E000E70110E00AEFCC
:100D900083E0882E9AE3992E2097B1F10E942806CD
:100DA000811105C00150C9F10E948906F5CF282F95
:100DB00030E0C217D3070CF48C2F4FB7F894809211
:100DC000E9009091E80095FF1DC0282F30E0C21B7C
:100DD000D30BF501982F915020F081918093F10071
:100DE000FACFA20EB31E112319F09092E80009C0A9
:100DF0008091E80085FD06C09092E80011E0209700
:100E000009F010E04FBFC8CF1111C8CF5D9884E63C
:100E100080938F011E141F0444F081E090E0F601DE
:100E20009383828380E090E001C0C701DF91CF917E
:100E30001F910F91FF90EF90DF90CF90BF90AF90F8
:100E40009F908F900895FC0180919201811103C0C1
:100E50008FEF9FEF08959FB7F89482E08093E900A9
:100E60002091F20030E01216130614F421E030E075
:100E70002115310559F0289884E6809391018091DD
:100E8000F10080838091F200882319F09FBFC9018F
:100E900008958BE68093E800F9CF80916F0281116D
:100EA0000DC082E080936B0284E080936C0210920C
:100EB0006E0210926D0281E080936F028BE692E0E9
:100EC0000895CF92DF92EF92FF920F931F93CF93EB
:100ED000DF931F92CDB7DEB7182F062FE42E862F93
:100EE000880F8E5F99830E942C0183E00E942C0161
:100EF000F12EC12E9981D92E8C2D8F19801798F43F
:100F0000F601E7FE02C0849101C080810E942C019D
:100F1000182F80E00E942C018123FFEFCF1ADF0AF7
:100F20008111EACF01C081E00F90DF91CF911F9135
:100F30000F91FF90EF90DF90CF900895CF93DF93C4
:100F400000D000D000D0CDB7DEB7789484B58260F1
:100F500084BD84B5816084BD85B5826085BD85B55D
:100F6000816085BD80916E00816080936E001092DB
:100F70008100809181008260809381008091810056
:100F800081608093810080918000816080938000E7
:100F900080919100826080939100809191008160A6
:100FA0008093910080919000816080939000809167
:100FB000C10084608093C1008091C10082608093F1
:100FC000C1008091C10081608093C1008091C30005
:100FD00081608093C3008091C00082608093C000D4
:100FE0008091C20081608093C20080917A00846009
:100FF00080937A0080917A00826080937A00809159
:101000007A00816080937A0080917A008068809372
:101010007A001092920110928E01109290018091AC
:10102000D70081608093D70080EA8093D80089B58B
:10103000806189BD89B5826089BD09B400FEFDCF9C
:101040000E9489068091D8008F7C80618093D800AF
:101050008091E000807F8093E0008091E1008E7EAF
:101060008093E1008DE08093E200559A209AEEEFA4
:10107000FFE7859194918B3F9C4D19F481E080931B
:101080008D0110923802109204021092D0018091CA
:10109000730190917401FC01EE0FFF1FEB58FE4F9E
:1010A00028E032E0318320830196FC01EE0FFF1F20
:1010B000EB58FE4F24ED31E0318320830196FC0193
:1010C000EE0FFF1FEB58FE4F20EA31E03183208303
:1010D000019690937401809373018FB7F8944091B7
:1010E00093015091940160919501709196018FBF89
:1010F0008091970190919801A0919901B0919A01E6
:10110000481B590B6A0B7B0B80919B0190919C01B2
:10111000092E000CAA0BBB0B84179507A607B7076F
:1011200038F080E090E0892BC1F20E940000D5CF1A
:101130002FB7F8948091930190919401A09195011B
:10114000B09196012FBF8093970190939801A0933F
:101150009901B0939A0185E7282E81E0382E00E0AE
:1011600010E0809173019091740108171907CCF673
:10117000D101ED91FD911D01FE83ED8383A98823AB
:1011800079F084819581DC01ED91FC910480F581F9
:10119000E02D0995ED81FE8164A375A386A397A335
:1011A000AD81BE8190964D905D906D907C909397AF
:1011B00054962D913D914D915C915797C301B20189
:1011C0000E94DA0B9B01AC01C301B2010E944B0CDF
:1011D00069837A838B839C83ED81FE8180889188EB
:1011E000A288B3880684F785E02DA501940160816B
:1011F0007181828193810E94D90B9B01AC0169812D
:101200007A818B819C810E94740D9B01AC01C50188
:10121000B4010E94DA0B6B017C0129813A814B8178
:101220005C8160E070E080E89FE30E94D90BA3013D
:1012300092010E94740D2B013C01A7019601C5018A
:10124000B4010E94D90B9F77AD81BE815C962D9130
:101250003D914D915C915F970E94740D9B01AC0193
:10126000C301B2010E94DA0BED81FE8160A371A37C
:1012700082A393A3C08AD18AE28AF38AC4A2D5A2A8
:10128000E6A2F7A280A491A4A2A4B3A4A50194010C
:10129000C701B6010E946F0D181644F4AD81BE81DE
:1012A000D0968C91D097882301F10FC0A5019401AD
:1012B000C701B6010E94460C87FF1FC0ED81FE8169
:1012C00080A981111AC0AD81BE81D2968C91D2972E
:1012D0008823F1F012968D919C911397DC01ED918A
:1012E000FC910480F581E02D12C0A5019401C70195
:1012F000B6010E94460C87FDE6CFED81FE8182811A
:101300009381DC01ED91FC910680F781E02D099538
:101310000F5F1F4F26CF08954F925F926F927F927B
:101320008F929F92AF92BF92CF92DF92EF92FF92F5
:101330000F931F93CF93DF9310927A02109279024A
:1013400088EE93E0A0E0B0E080937B0290937C0273
:10135000A0937D02B0937E028DE191E0909378029C
:10136000809377028FEF9FEF9093840280938302A4
:10137000E5E6F1E0F0935C02E0935B022CE330E001
:1013800030935E0220935D0281E090E090936002D2
:1013900080935F02C12CD12CE12C40E4F42EC0924A
:1013A0006302D0926402E0926502F092660246E225
:1013B00053E969E47FE340936702509368026093C6
:1013C000690270936A029093620280936102CBE497
:1013D000D2E0F0934C02E0934B0230934E02209304
:1013E0004D029093500280934F02C0925302D092CC
:1013F0005402E0925502F0925602409357025093E5
:1014000058026093590270935A021092520210923D
:1014100051020FE311E0109347020093460285E06A
:101420000E94090685E090E090934A028093490269
:10143000109342020093410287E00E94090687E070
:1014400090E0909345028093440210933D020093F4
:101450003C0286E00E94090686E090E090934002FC
:1014600080933F025AE0852E57ED952E53EAA52E24
:101470005CE3B52E80920E0290920F02A0921002B1
:10148000B092110280E090E0A8ECB1E480931202E7
:1014900090931302A0931402B093150280931C0240
:1014A00090931D02A0931E02B0931F02809320020E
:1014B00090932102A0932202B093230280922402EF
:1014C00090922502A0922602B09227022CE232E0EE
:1014D000309317022093160240912C0250912D0256
:1014E00060912E0270912F024093180250931902BE
:1014F00060931A0270931B02809328029093290232
:10150000A0932A02B0932B0210922C0210922D026B
:1015100010922E0210922F02C0923402D092350205
:10152000E0923602F092370221E0209338021092C6
:10153000390246E452E050930B0240930A024BE515
:1015400052E050930D0240930C02412C512C6CE858
:10155000662E62E4762E4092300250923102609202
:1015600032027092330220933A0220933B0210928F
:101570000902109208028092DA019092DB01A09297
:10158000DC01B092DD018093DE019093DF01A09336
:10159000E001B093E1018093E8019093E901A09309
:1015A000EA01B093EB018093EC019093ED01A093DD
:1015B000EE01B093EF018092F0019092F101A092C0
:1015C000F201B092F30148EF51E05093E3014093F0
:1015D000E2014091F8015091F9016091FA01709196
:1015E000FB014093E4015093E5016093E6017093A1
:1015F000E7018093F4019093F501A093F601B09375
:10160000F7011092F8011092F9011092FA0110926C
:10161000FB01C0920002D0920102E0920202F0921D
:101620000302209304021092050241E452E0509319
:10163000D7014093D601D093D901C093D8014092ED
:10164000FC015092FD016092FE017092FF01209317
:101650000602209307021092D5011092D4018092C5
:10166000A6019092A701A092A801B092A90180932F
:10167000AA019093AB01A093AC01B093AD0180930C
:10168000B4019093B501A093B601B093B7018093D4
:10169000B8019093B901A093BA01B093BB018092B5
:1016A000BC019092BD01A092BE01B092BF0144EC7A
:1016B00051E05093AF014093AE014091C40150916D
:1016C000C5016091C6017091C7014093B00150936C
:1016D000B1016093B2017093B3018093C001909304
:1016E000C101A093C201B093C3011092C401109232
:1016F000C5011092C6011092C701C092CC01D092D0
:10170000CD01E092CE01F092CF012093D001109252
:10171000D1018CE392E09093A3018093A201D09336
:10172000A501C093A4014092C8015092C9016092E2
:10173000CA017092CB012093D2012093D301109261
:10174000A1011092A0018091C70281111BC082E308
:1017500090E090939C0180939B013FB7F894809117
:10176000930190919401A0919501B09196013FBF92
:101770008093970190939801A0939901B0939A0157
:101780002093C7028DE991E090939F0180939E0181
:10179000DF91CF911F910F91FF90EF90DF90CF904D
:1017A000BF90AF909F908F907F906F905F904F9081
:1017B00008955058BB27AA270E94F10B0C94350DB1
:1017C0000E94270D38F00E942E0D20F039F49F3F23
:1017D00019F426F40C94240D0EF4E095E7FB0C9418
:1017E0001E0DE92F0E94460D58F3BA1762077307C2
:1017F0008407950720F079F4A6F50C94680D0EF493
:10180000E0950B2EBA2FA02D0B01B90190010C0110
:10181000CA01A0011124FF27591B99F0593F50F428
:10182000503E68F11A16F040A22F232F342F442780
:10183000585FF3CF469537952795A795F040539578
:10184000C9F77EF41F16BA0B620B730B840BBAF048
:101850009150A1F0FF0FBB1F661F771F881FC2F7B3
:101860000EC0BA0F621F731F841F48F487957795C7
:101870006795B795F7959E3F08F0B0CF9395880F81
:1018800008F09927EE0F9795879508950E94FA0C16
:1018900008F481E008950E945F0C0C94350D0E94BD
:1018A0002E0D58F00E94270D40F029F45F3F29F0DB
:1018B0000C941E0D51110C94690D0C94240D0E9472
:1018C000460D68F39923B1F3552391F3951B550BFE
:1018D000BB27AA2762177307840738F09F5F5F4F03
:1018E000220F331F441FAA1FA9F335D00E2E3AF042
:1018F000E0E832D091505040E695001CCAF72BD05A
:10190000FE2F29D0660F771F881FBB1F26173707AA
:101910004807AB07B0E809F0BB0B802DBF01FF27DC
:1019200093585F4F3AF09E3F510578F00C941E0D8E
:101930000C94690D5F3FE4F3983ED4F38695779558
:101940006795B795F7959F5FC9F7880F911D969595
:10195000879597F90895E1E0660F771F881FBB1FF1
:10196000621773078407BA0720F0621B730B840B9E
:10197000BA0BEE1F88F7E0950895E89409C097FB2D
:101980003EF490958095709561957F4F8F4F9F4F56
:101990009923A9F0F92F96E9BB279395F69587959A
:1019A00077956795B795F111F8CFFAF4BB0F11F45D
:1019B00060FF1BC06F5F7F4F8F4F9F4F16C0882304
:1019C00011F096E911C0772321F09EE8872F762F3A
:1019D00005C0662371F096E8862F70E060E02AF07B
:1019E0009A95660F771F881FDAF7880F9695879567
:1019F00097F90895990F0008550FAA0BE0E8FEEF3C
:101A000016161706E807F907C0F012161306E407C2
:101A1000F50798F0621B730B840B950B39F40A26BB
:101A200061F0232B242B252B21F408950A2609F499
:101A3000A140A6958FEF811D811D089597F99F679D
:101A400080E870E060E008959FEF80EC0895002446
:101A50000A941616170618060906089500240A9413
:101A600012161306140605060895092E0394000C99
:101A700011F4882352F0BB0F40F4BF2B11F460FF28
:101A800004C06F5F7F4F8F4F9F4F089557FD905851
:101A9000440F551F59F05F3F71F04795880F97FB32
:101AA000991F61F09F3F79F08795089512161306EC
:101AB0001406551FF2CF4695F1DF08C0161617061B
:101AC0001806991FF1CF8695710561050894089550
:101AD000E894BB2766277727CB0197F908950E94E2
:101AE000FA0C08F48FEF08950E94870D0C94350DC1
:101AF0000E94270D38F00E942E0D20F0952311F042
:101B00000C941E0D0C94240D11240C94690D0E944C
:101B1000460D70F3959FC1F3950F50E0551F629FDE
:101B2000F001729FBB27F00DB11D639FAA27F00D36
:101B3000B11DAA1F649F6627B00DA11D661F829F5D
:101B40002227B00DA11D621F739FB00DA11D621F42
:101B5000839FA00D611D221F749F3327A00D611D5F
:101B6000231F849F600D211D822F762F6A2F112441
:101B70009F5750409AF0F1F088234AF0EE0FFF1F74
:101B8000BB1F661F771F881F91505040A9F79E3FCB
:101B9000510580F00C941E0D0C94690D5F3FE4F329
:101BA000983ED4F3869577956795B795F795E79521
:101BB0009F5FC1F7FE2B880F911D9695879597F92A
:101BC0000895EE0FFF1F0590F491E02D0994CF9337
:101BD000DF938230910510F482E090E0E091D10231
:101BE000F091D20220E030E0C0E0D0E0309711F177
:101BF0004081518148175907C0F04817590761F4CF
:101C000082819381209719F09B838A832BC09093C4
:101C1000D2028093D10226C02115310519F0421756
:101C2000530718F49A01BE01DF01EF010280F3812E
:101C3000E02DDCCF2115310509F1281B390B2430AB
:101C4000310590F412968D919C9113976115710551
:101C500021F0FB019383828304C09093D20280938E
:101C6000D102FD01329644C0FD01E20FF31F8193C2
:101C70009193225031092D933C933AC02091CF0289
:101C80003091D002232B41F420910E0130910F01AD
:101C90003093D0022093CF0220910C0130910D019E
:101CA0002115310541F42DB73EB7409110015091F7
:101CB0001101241B350BE091CF02F091D002E21705
:101CC000F307A0F42E1B3F0B2817390778F0AC015F
:101CD0004E5F5F4F2417350748F04E0F5F1F50933C
:101CE000D0024093CF028193919302C0E0E0F0E0F4
:101CF000CF01DF91CF9108950F931F93CF93DF937F
:101D0000009709F48CC0FC01329713821282009173
:101D1000D1021091D2020115110581F42081318187
:101D2000820F931F2091CF023091D00228173907DC
:101D300079F5F093D002E093CF0271C0D80140E072
:101D400050E0AE17BF0750F412962D913C911397B7
:101D5000AD012115310509F1D901F3CF9D01DA015A
:101D60003383228360817181860F971F82179307C7
:101D700069F4EC0128813981260F371F2E5F3F4F10
:101D8000318320838A819B8193838283452B29F42D
:101D9000F093D202E093D10242C01396FC93EE93EB
:101DA0001297ED01499159919E01240F351FE217B9
:101DB000F30771F480819181840F951F029611962B
:101DC0009C938E938281938113969C938E9312970A
:101DD000E0E0F0E0D80112968D919C911397009766
:101DE00019F0F8018C01F6CF8D919C9198012E5F2E
:101DF0003F4F820F931F2091CF023091D0022817BE
:101E0000390769F4309729F41092D2021092D10266
:101E100002C0138212821093D0020093CF02DF918E
:101E2000CF911F910F91089581E090E0F8940C9468
:101E3000190F10E0C3EED0E004C0FE010E94E10DD6
:0C1E40002196C43ED107C9F7F894FFCFEB
:101E4C00FFFFFFFF00E10000000000000000D302D4
:101E5C00800000C18081000000000000006406A327
:101E6C000685067A060E0178029602000000000034
:101E7C00000000EC02EC02F401F10100000000088B
:101E8C0006F40268025802F401F10100000000009F
:101E9C00000000EC0200000000000000005102EC09
:0E1EAC0002000000000706F2025102F70100DA
:00000001FF
